:040000000C94A500B7
:100004000C94D9000C9400000C9400000C94000093
:100014000C9400000C9400000C9400000C9400005C
:100024000C94D2000C9400000C9400000C9400007A
:100034000C9400000C9400000C9400000C9400003C
:100044000C9400000C9400000C9400000C9400002C
:100054001027E80364000A000100001000011000EA
:10006400010000001E000700000101000100002043
:100074002020253032643A253032643A2530326407
:100084002020504D00202020253032643A25303283
:10009400643A253032642020414D00202020436CF6
:1000A40069656E7420232530336420202000476F57
:1000B40020546F20436F756E74657223253032644B
:1000C40021002025336420436C69656E74287329EC
:1000D40020002020204265666F726520596F7520CC
:1000E40020200020202020536F727279203A28208B
:1000F40020202000202054696D652773204F7665E9
:1001040072212020000001002D4E414E00494E4630
:10011400000080C00A000400660001007102700043
:1001240001006002720001006102720001006202BB
:100134007200010063027200010073020A010200EE
:10014400770216010000F894EE27ECBBF1E0FBBF48
:10015400EBBFE5BF8DE0A2E0BB27ED938A95E9F7FD
:1001640080E098E0A0E6ED930197E9F7E8E1F1E09B
:1001740085919591009761F0A591B59105901590A1
:10018400BF01F00105900D920197E1F7FB01F0CF5B
:10019400EFE5EDBFE8E0EEBFC0E6D2E00C94660107
:1001A400EA93E5E8EDBDEEEEECBDE99118950A920F
:1001B4001A92FA926A937A938A939A93AA93BA9325
:1001C400EA93FA93EFB7EA930E942E06AFD11E2F5B
:1001D400EBB7E064EBBF1F3F09F465C0BB2099F4A3
:1001E400E1E0F0E0E815F9054CF0E815F90529F42B
:1001F400EEE1F0E06E167F060CF405C0E0E0E0935B
:100204007102E0937202E12FF0E0E130A0E0FA071E
:1002140059F5E0917102F0917202309719F1E4E618
:10022400F2E0FA93EA93A5E0B0E014D19F01EFEF76
:10023400FFEFE217F30761F0A4E6B2E0A20FB31FE9
:10024400E1E0EC93DA92CA92D90111961ED109C069
:10025400A0916B02B0916C0238D1ABE6B2E00E947F
:10026400350501C04ED11FC0E930A0E0FA07D9F42A
:10027400E0E0E0936402A0916B02B0916C020E94F2
:1002840028068CF4ABE6B2E0ED91FD913197FE9334
:10029400EE93E0E0F0E0FA93EA93A1E0B0E0F5D069
:1002A400E1E0E09364020E9435062496E991EFBFF1
:1002B400F991E991B991A99199918991799169916A
:1002C400F99019900990189500E612E0EFEFE7BB5A
:1002D400E0E0E8BBE0EFE4BBEFE0E5BBEBB7E064F4
:1002E400EBBFE2E0E5BFE0E0E4BFE0E4EABFE0E06A
:1002F400EFBDE4E0EEBDE5E8EDBDEEEEECBDE0E023
:10030400E7BDE6BDEBBDEABDE9BDE8BD7894E0E03C
:10031400E0936402E0936502E0936602E09367026F
:10032400E0936802E0936902E0936A020E943B054D
:100334000E943B050E943B05A0E10E940605BB20EC
:1003440059F41A930A93E3E7F0E0FA93EA93F40179
:100354000E944105F30111C01A930A93E9E8F0E001
:10036400FA93EA93E0916402FF27662777270E94B5
:100374002306E0916B02F0916C020E94E2050E9458
:100384002306F2010E9441058CE00E94520460960B
:100394000E944605A8EEB3E00E94D0050E94CE0458
:1003A400CECFFFCFBA93AA930E942E06AE81BF810F
:1003B400EC911E2FA885B985EC910E2FAA85BB85DB
:1003C400EC913E2FAC85BD85E8EEF3E00E94FA0582
:1003D400EC87FD87EC851E0F1C3340F00F5FA12FC7
:1003E400BB27ECE3F0E00E94FF051E2F0C3340F026
:1003F4003F5FA02FBB27ECE3F0E00E94FF050E2F28
:100404003D3090F0A32FBB27ECE0F0E00E94FF0505
:100414003E2FAC81BD81EC91E03011F0E0E001C0F1
:10042400E1E0AC81BD81EC93E12FAE81BF81F0E0CE
:10043400ED93FC93E02FA885B985F0E0ED93FC9350
:10044400E32FAA85BB85F0E0ED93FC930E9435066B
:100454002E9608950E944E0500E010E000E010E0A2
:10046400EA81FB810E171F076CF4F801AC81BD8192
:10047400AE0FBF1FEC91E03011F4F80122C00F5F02
:100484001F4FEECFEFEFFFEF1CC00E944E0501E6B9
:1004940012E00E945305EFE9F0E0FA93EA93E8854D
:1004A400F9850E9441050E9458050E9446051A9349
:1004B4000A93E2EBF0E00E945D050E9458050E9459
:1004C400620519810881269608950E944E0502E668
:1004D40012E00E945305E6ECF0E00E945D050E94E4
:1004E40058050E9446051A930A93E6EDF0E00E942F
:1004F4005D050E9458050E946205198108812496B1
:1005040008951A930A9303E612E00E945305E7EE56
:10051400F0E00E9484050E9446051A930A93E8EFCE
:10052400F0E00E9484050E9462054BC01A930A936E
:100534001FEFEFEFE5BBAC980E948B0581F00E94A2
:10054400900511F411E00BC0E530A0E0FA0711F4B6
:1005540012E005C0E330A0E0FA0709F413E0AC9A16
:10056400AD980E948B0581F00E94900511F414E06F
:100574000BC0E530A0E0FA0711F415E005C0E33044
:10058400A0E0FA0709F416E0AD9AAE980E948B0534
:1005940081F00E94900511F417E00BC0E530A0E053
:1005A400FA0711F418E005C0E330A0E0FA0709F4F3
:1005B40019E0AE9AAF98999B10E0AF9AEFE0E5BBD3
:1005C400E12F0991199108950E944E05AA81BB81DA
:1005D40012960E941B06309729F1AA81BB811496BA
:1005E4000E941B068F01309761F00230E0E01E0785
:1005F40080F0F80131978F01AA81BB811496ED93A5
:10060400FC93AA81BB8112960E9435053197AC8177
:10061400A083AA81BB810E941B06FF2312F00E94C3
:10062400350506C0AA81BB81EFEFFFEFED93FC9384
:100634001981088125960895BA93AA9326970E9452
:100644002C0610E0AC85BD85E0E0F0E0ED93FC9372
:10065400EA89FB893196EA8BFB8B3197E4912E2F43
:10066400E03009F415C1E12FE03039F4253211F4FA
:1006740011E002C00E9496050AC1E130A9F42532B6
:1006840019F40E94960502C112E040E000E02D3208
:1006940011F401E0FCC02B3211F44BE2F8C020321B
:1006A40011F440E2F4C002C0E23039F450E013E047
:1006B400203311F40068EBC003C0E33009F0E7C055
:1006C400203310F02A3308F007C0AAE05A9F502DB7
:1006D400E22FE0535E0FDBC0E22FE33649F40E94C1
:1006E4009D05E889F989A481AA930E94A305CEC037
:1006F400E33741F40E949D050E94A9050E948604E7
:100704001E2F0AC0E03761F40E949D050E94A905CE
:100714000E9492041E2F086002600F7730E034C0FC
:10072400E43611F0E93611F4046002C0E53731F41F
:10073400E4E5F0E0EE83FF8315E00CC0E83511F446
:10074400086003C0E83709F0A1C0EEE5F0E0EE83ED
:10075400FF8314E002FF14C00E949D050E94B305AC
:10076400AB85AA233AF4EA85FB850E94DE05EA8775
:10077400FB874DE2403011F01F5F01C00B7F04C0C6
:100784000E949D050E94B30500FD11C0151778F461
:1007940007FF08C002FF04C00B7F242F115001C0C3
:1007A40020E301C020E20E9496055150EFCF312F83
:1007B40001FF17C03030A1F003FF06C0EE81FF81B6
:1007C4002591EE83FF8305C0AE81BF812D91AE8359
:1007D400BF830E949605503009F051503150EACF42
:1007E4004BC020E3EE81FF810E941F06E887F98752
:1007F400EE81FF813296EE83FF83E885F985AA8531
:10080400BB85AE17BF0750F02F5FA885B985EA8571
:10081400FB85EA1BFB0BEA87FB87EFCF2A3328F023
:1008240003FF02C0295F01C0295D04FD1AC0213302
:1008340020F4A885B985119709F409C0531710F05D
:1008440000FF01C013C020E207FF0BC020E30061DA
:1008540002FF07C00B7F4A930E94A305503009F0A2
:1008640051500E949605503009F051503150A885DE
:10087400B985129708F0B5CF00FF08C0503031F0A9
:100884005150E0E2EA930E94A305F8CF10E0E0CED5
:10089400AC85BD850E941B060E94330664960895AC
:1008A400FF92F82E26970E942E060E94BB053097D1
:1008B40019F4EFEFFFEF23C0DE0116960E94DA056C
:1008C4008D010E94BB05EE83FF83E0E0E887E987A2
:1008D400DE011A960E94DA050E941B06FA93EA9337
:1008E4001A930A93E6EEF2E0FA93EA93DE011A967B
:1008F400A3DE9F01AE81BF81E0E0EC93F9010E9489
:1009040035062A96FF900895BA93AA93A991B991AE
:10091400EE27FF276D91662311F03196FBCF0895E2
:10092400BA93AA93AA27BB27E991F99105900020CD
:1009340011F01196FBCFFD010895AA93E8B3EF706F
:10094400AE2FE881E07FEA2BE8BB8DE08A95F1F7D2
:10095400C29A8DE08A95F1F7C2988DE08A95F1F7F5
:1009640080C0AA93A881E9DFE881E295E883A881A1
:10097400E4DF85E88A95F1F774C0AA93E881F0E092
:10098400E958FD4FE081A981AE0FEBDFA980E88132
:10099400E0937B0222960895A2E00E94C205ACE097
:1009A400E0DFA1E00E94C205E0E0E0937B02AE2E0E
:1009B4000895AA93A881AA3021F0E0917C02AE1692
:1009C40060F0E0E0EA93A0917B02AF5FA0937B022A
:1009D400D4DFA881AA3009F444C0A394C09AA881A2
:1009E400C0DFC0983EC0BA93AA931A93A981BA8172
:1009F400ED91A983BA831E2FE03019F0A12FD9DF1E
:100A0400F5CF188123960895AA93E7B3E06FE7BB67
:100A1400BA9AB89AB99AC298C098C198E881E093F2
:100A24007C02E058E0937902E881E054E0937A0292
:100A3400A4E1B0E00E94D0050E94C8050E94C80548
:100A44000E94C805A0E279DF88EC90E00197F1F7F5
:100A5400A8E287DFA4E085DFA5E883DFA6E081DFE5
:100A64009BDF21960895ED91FD913196FE93EE93CF
:100A74000895E0E0E0936B02E0936C0208950E9415
:100A8400E2050E9423060895E0E0EA93A0E00E94B4
:100A9400BF04D8010C94F504BA93AA931A930A9349
:100AA40008950E94CE041A930A93089584E00E9444
:100AB400520428960895FA93EA93EE81FF81DFCFDA
:100AC400E0E0EA93A1E00E94BF04D8010E94F5048B
:100AD400A8EBBBE00E94D005E8EBFBE0FA93EA93B5
:100AE400E8E0F0E0FA93EA93E6E0F0E0FA93EA93C0
:100AF400E4E0F0E0FA93EA93ABE0B0E00E94D401C2
:100B04000C94CE04FA93EA9380E00E945204249653
:100B14000895E3B3E7700E2F07300895E02FF0E057
:100B2400E630A0E0FA0708952A93AD85BE85EF85E7
:100B3400F88909950895E889F9893497E88BF98B40
:100B44000895AD85BE85EF85F88909950895A8892E
:100B5400B98914960E941B06EE83FF83AE81BF8180
:100B64000895A889B98914960E941B06EA87FB8711
:100B74000895DE011C960E94DA050E941B06089562
:100B84000E94B304A3E0B0E00C94D005A0E30E945B
:100B94009F0488EC90E00197F1F70895109639F0DE
:100BA40080ED97E00197F1F7A8951197C9F708959B
:100BB4000024AF0DB01D0895F195E195F04008951E
:100BC4006F2F660F660B762F08950024112490E191
:100BD400AA0FBB1F001C111C0E1A1F0A18F40E0EBC
:100BE4001F1E01C0A1609A9599F7FD01D0010895D7
:100BF40012D0EBDF0EF4E0DF0895E894B7FF04C0F1
:100C0400A095B09511966894F7FDD6DFDEDFFD015F
:100C14000EF4D2DF0895E894F7FF02C0CDDF6894A4
:100C2400B7FF06C0A095B095119600F8039400FA9A
:100C34000895ED91FC91119708950590F491E02D9C
:100C440008957A936A93FA93EA93089500240A160E
:100C54000B0608955A934A933A932A931A930A9344
:100C640008955D814C813B812A8119810881089511
:00000001FF
