:020000000C945E
:100002009B000C94CF000C9400000C9400000C9404
:1000120000000C9400000C9400000C9400000C945E
:1000220000000C94C8000C9400000C9400000C9486
:1000320000000C9400000C9400000C9400000C943E
:1000420000000C9400000C9400000C9400000C942E
:1000520000001027E80364000A00010000100001FC
:100062001000010000001E00070000010000010056
:10007200202020253032643A253032643A2530324D
:10008200642020504D00202020253032643A253053
:1000920032643A253032642020414D002020204332
:1000A2006C69656E7420232530336420202000475C
:1000B2006F20546F20436F756E7465722325303242
:1000C2006421002025336420436C69656E742873B3
:1000D2002920002020204265666F726520596F75C5
:1000E2002020200020202020536F727279203A288D
:1000F2002020202000202054696D652773204F7630
:1001020065722120200001002D4E414E00494E46CD
:10011200000080C00A00040066000100C6047000EE
:100122000100600287000100D80408010200DC041B
:1001320014010000F894EE27ECBBF1E0FBBFEBBF2B
:10014200E5BF8DE0A2E0BB27ED938A95E9F780E059
:1001520098E0A0E6ED930197E9F7E6E1F1E08591F9
:100162009591009761F0A591B59105901590BF0109
:10017200F00105900D920197E1F7FB01F0CFEFE559
:10018200EDBFE8E0EEBFC0E6D2E00C947F02EA9356
:10019200E5E8EDBDEEEEECBDE99118950A921A92F2
:1001A200FA926A937A938A939A93AA93BA93EA9366
:1001B200FA93EFB7EA930E946507B3D21E2FEBB70B
:1001C200E064EBBF1F3F09F435C1BB2099F4E1E0C5
:1001D200F0E0E815F9054CF0E815F90529F4EEE12F
:1001E200F0E06E167F060CF405C0E0E0E093C60472
:1001F200E093C704E12FF0E0E130A0E0FA0769F5EF
:100202000E94310641F10E943706E1E6F2E0FA93DC
:10021200EA93A5E0B0E014D29F01EFEFFFEFE217FF
:10022200F30761F0A1E6B2E0A20FB31FE1E0EC93A5
:10023200DA92CA92D90111961DD20CC00E943C06D4
:1002420033D20E9441063196FE93EE93EEE6F2E03F
:100252000E94460601C03ED2EDC0E230A0E0FA079D
:1002620011F50E943106E9F00E943706E09166021C
:10027200E03049F4E1E0E0936602DA92CA92A6E045
:10028200B0E0F8D10DC0A0916A02B0916B020CD21D
:10029200AAE6B2E00E944B06E6E3F3E00E944606BD
:1002A20001C018D2C7C0E330A0E0FA0711F50E94DE
:1002B2003106E9F00E943706E0916702E03049F426
:1002C200E1E0E0936702DA92CA92A7E0B0E0D2D10D
:1002D2000DC0A0916C02B0916D02E6D1ACE6B2E025
:1002E2000E944B06EEEFF3E00E94460601C0F2D1F7
:1002F200A1C0E930A0E0FA0781F4E0E0E0936102F6
:100302000E9451064CF40E9441060E945506A1E04B
:100312000E945F06E09361028DC0E830A0E0FA0718
:1003220081F4E0E0E09362020E9451064CF40E94E4
:1003320041060E945506A2E00E945F06E093620217
:1003420079C0E730A0E0FA0781F4E0E0E0936302CD
:100352000E9451064CF40E9441060E945506A3E0F9
:100362000E945F06E093630265C0E630A0E0FA07F0
:1003720081F4E0E0E09364020E9451064CF40E9492
:1003820041060E945506A4E00E945F06E0936402C3
:1003920051C0E530A0E0FA0781F4E0E0E0936502A5
:1003A2000E9451064CF40E9441060E945506A5E0A7
:1003B2000E945F06E09365023DC0E430A0E0FA07C8
:1003C200E1F4E0E0E0936602A0916A02B0916B0270
:1003D2000E945F078CF4AAE6B2E0ED91FD9131979D
:1003E200FE93EE93A6E3B3E051D0FA93EA93A6E02C
:1003F2000E945F06E09366021DC03097D9F4E0E0E8
:10040200E0936702A0916C02B0916D020E945F07B7
:100412008CF4ACE6B2E0ED91FD913197FE93EE9350
:10042200AEEFB3E033D0FA93EA93A7E00E945F06FF
:10043200E09367020E946C072496E991EFBFF9915D
:10044200E991B991A9919991899179916991F990DB
:100452001990099018950E9464060436E0E01E0780
:10046200A4F40E946D06AE0FBF1F0E945207309780
:1004720049F40E946D06EA0FFB1FAA81BB81A0838B
:10048200B183F4C00F5F1F4FE8CFF0C0BA93AA93B5
:100492000E94650700E010E020E030E0AC81BD8101
:1004A2000E945207309729F4EFEFFFEF0E946C078A
:1004B200DFC0AC81BD812D913C910E946D06AE0FD3
:1004C200BF1F0E9452073097A9F00E946D06EA0FE3
:1004D200FB1F0F01F8013196AC81BD81EE0FFF1FAA
:1004E200AE0FBF1F0E945207D001ED93FC930F5F26
:1004F2001F4FE3CFF9010E946C07BAC0EFEFE7BBD1
:10050200E0E0E8BBE0EFE4BBEFE0E5BBEBB7E064C3
:10051200EBBFE2E0E5BFE0E0E4BFE0E4EABFE0E039
:10052200EFBDE4E0EEBDE5E8EDBDEEEEECBDE0E0F2
:10053200E7BDE6BDEBBDEABDE9BDE8BD7894A0E14B
:100542000E940206BB2029F40E947306E2E7F0E053
:1005520004C00E947306E8E8F0E0FA93EA93F4011B
:100562000E947806F3010E947806F2010E94780642
:100572008CE00E944E0560960E947D06A8EEB3E0D4
:100582000E940707E8EEF3E00E948606DBCFFFCF6A
:10059200BA93AA930E946507AE81BF81EC911E2F88
:1005A200A885B985EC910E2FAA85BB85EC913E2FCB
:1005B200AC85BD85E8EEF3E00E943107EC87FD874C
:1005C200EC851E0F1C3340F00F5FA12FBB27ECE31D
:1005D200F0E00E9436071E2F0C3340F03F5FA02F41
:1005E200BB27ECE3F0E00E9436070E2F3D3090F07F
:1005F200A32FBB27ECE0F0E00E9436073E2FAC8130
:10060200BD81EC91E03011F0E0E001C0E1E0AC81AD
:10061200BD81EC93E12FAE81BF81F0E0ED93FC93BD
:10062200E02FA885B985F0E0ED93FC93E32FAA852E
:10063200BB85F0E0ED93FC930E946C072E96089523
:100642000E946406EA81FB810E171F076CF4F80111
:10065200AC81BD81AE0FBF1FEC91E03011F4F80107
:1006620005C00F5F1F4FEECFEFEFFFEF198108813B
:10067200269608950E949A06EEE9F0E0FA93EA932C
:10068200EE81FF810E9478060E949F060E947D06ED
:100692000E947306E1EBF0E00E94A4060E949F060E
:1006A2000E94A906249608950E949A06E5ECF0E0BD
:1006B2000E94A4060E949F060E947D060E94730665
:1006C200E5EDF0E00E94A4060E949F060E94A906A2
:1006D2000C94C8051A930A9300E612E00E94CA0518
:1006E2001A930A93E6EEF0E00E94B906A0E00E9497
:1006F200BB05D8010E94F1051A930A93E7EFF0E0D7
:100702000E94B906A1E00E94BB05D8010E94F10532
:10071200A8EBBBE00E940707E8EBFBE00E9486061D
:100722004BC01A930A931FEFEFEFE5BBAC980E9400
:10073200C20681F00E94C70611F411E00BC0E53039
:10074200A0E0FA0711F412E005C0E330A0E0FA07D6
:1007520009F413E0AC9AAD980E94C20681F00E949F
:10076200C70611F414E00BC0E530A0E0FA0711F45B
:1007720015E005C0E330A0E0FA0709F416E0AD9AEF
:10078200AE980E94C20681F00E94C70611F417E0DB
:100792000BC0E530A0E0FA0711F418E005C0E33021
:1007A200A0E0FA0709F419E0AE9AAF98999B10E01D
:1007B200AF9AEFE0E5BBE12F099119910895BA9341
:1007C200AA931A930A93AA81BB8112960E94520796
:1007D200309729F1AA81BB8114960E9452078F019A
:1007E200309761F00230E0E01E0780F0F8013197A7
:1007F2008F01AA81BB811496ED93FC93AA81BB81E0
:1008020012960E944B063197AC81A083AA81BB81CC
:100812000E945207FF2312F00E944B0606C0AA81D3
:10082200BB81EFEFFFEFED93FC93198108812596D1
:100832000895BA93AA9326970E94630710E0AC85A5
:10084200BD85E0E0F0E0ED93FC93EA89FB89319607
:10085200EA8BFB8B3197E4912E2FE03009F415C11E
:10086200E12FE03039F4253211F411E002C00E9488
:10087200CD060AC1E130A9F4253219F40E94CD0651
:1008820002C112E040E000E02D3211F401E0FCC0B0
:100892002B3211F44BE2F8C0203211F440E2F4C0E2
:1008A20002C0E23039F450E013E0203311F4006862
:1008B200EBC003C0E33009F0E7C0203310F02A3365
:1008C20008F007C0AAE05A9F502DE22FE0535E0FB6
:1008D200DBC0E22FE33649F40E94D406E889F989A5
:1008E200A481AA930E94DA06CEC0E33741F40E94A3
:1008F200D4060E94E0060E9482051E2F0AC0E0373D
:1009020061F40E94D4060E94E0060E948E051E2F0A
:10091200086002600F7730E034C0E43611F0E93647
:1009220011F4046002C0E53731F4E4E5F0E0EE834F
:10093200FF8315E00CC0E83511F4086003C0E83706
:1009420009F0A1C0EEE5F0E0EE83FF8314E002FFC0
:1009520014C00E94D4060E94EA06AB85AA233AF488
:10096200EA85FB850E941507EA87FB874DE2403046
:1009720011F01F5F01C00B7F04C00E94D4060E94C9
:10098200EA0600FD11C0151778F407FF08C002FF40
:1009920004C00B7F242F115001C020E301C020E2CC
:1009A2000E94CD065150EFCF312F01FF17C03030DA
:1009B200A1F003FF06C0EE81FF812591EE83FF8344
:1009C20005C0AE81BF812D91AE83BF830E94CD064B
:1009D200503009F051503150EACF4BC020E3EE8144
:1009E200FF810E945607E887F987EE81FF813296E0
:1009F200EE83FF83E885F985AA85BB85AE17BF071D
:100A020050F02F5FA885B985EA85FB85EA1BFB0BB1
:100A1200EA87FB87EFCF2A3328F003FF02C0295F62
:100A220001C0295D04FD1AC0213320F4A885B985CF
:100A3200119709F409C0531710F000FF01C013C049
:100A420020E207FF0BC020E3006102FF07C00B7F1B
:100A52004A930E94DA06503009F051500E94CD06A6
:100A6200503009F051503150A885B985129708F0DD
:100A7200B5CF00FF08C0503031F05150E0E2EA93A8
:100A82000E94DA06F8CF10E0E0CEAC85BD850E9468
:100A920052070E946A0764960895FF92F82E2697DD
:100AA2000E9465070E94F206309719F4EFEFFFEFFC
:100AB20023C0DE0116960E9411078D010E94F206E4
:100AC200EE83FF83E0E0E887E987DE011A960E9461
:100AD20011070E945207FA93EA931A930A93E0EEDF
:100AE200F3E0FA93EA93DE011A96A3DE9F01AE8148
:100AF200BF81E0E0EC93F9010E946C072A96FF9017
:100B02000895BA93AA93A991B991EE27FF276D91FF
:100B1200662311F03196FBCF0895BA93AA93AA27C0
:100B2200BB27E991F9910590002011F01196FBCFB6
:100B3200FD010895AA93E8B3EF70AE2FE881E07F3C
:100B4200EA2BE8BB8DE08A95F1F7C29A8DE08A958F
:100B5200F1F7C2988DE08A95F1F780C0AA93A88137
:100B6200E9DFE881E295E883A881E4DF85E88A95F8
:100B7200F1F774C0AA93E881F0E0E452FB4FE08100
:100B8200A981AE0FEBDFA980E881E093E004229611
:100B92000895A2E00E94F906ACE0E0DFA1E00E9425
:100BA200F906E0E0E093E004AE2E0895AA93A8814E
:100BB200AA3021F0E091E104AE1660F0E0E0EA93A1
:100BC200A091E004AF5FA093E004D4DFA881AA3033
:100BD20009F444C0A394C09AA881C0DFC0983EC063
:100BE200BA93AA931A93A981BA81ED91A983BA8380
:100BF2001E2FE03019F0A12FD9DFF5CF18812396EF
:100C02000895AA93E7B3E06FE7BBBA9AB89AB99A84
:100C1200C298C098C198E881E093E104E058E0935B
:100C2200DE04E881E054E093DF04A4E1B0E00E9436
:100C320007070E94FF060E94FF060E94FF06A0E22D
:100C420079DF88EC90E00197F1F7A8E287DFA4E072
:100C520085DFA5E883DFA6E081DF9BDF219608958B
:100C6200E091C604F091C70430970895F6013196D9
:100C72006F0131970895A0916802B09169020895B9
:100C8200A8E6B2E0ED91FD910895FA93EA93D601B8
:100C92000C942C02ED91FD913196FE93EE93089502
:100CA200EADF0E945F0708953197FE93EE93AEE666
:100CB200B2E00E944702FA93EA930895B0E00E94DC
:100CC2003B03E1E00895BA93AA931A930A9300E0D2
:100CD20010E000E010E00895F801AC81BD81EE0F54
:100CE200FF1F0895E8ECF4E0FA93EA9308950E9456
:100CF20019070E945A070895E0E0EA93A0E00E94D3
:100D0200BB05A8ECB4E00C94F105FA93EA93E8E091
:100D1200F0E0FA93EA93E6E0F0E0FA93EA93E4E093
:100D2200F0E0FA93EA93ABE0B0E00E94C9020C94BF
:100D3200CA05BA93AA930E94CA05D4CF84E00E943E
:100D42004E0528960895FA93EA93EC81FD81CFCF60
:100D5200E0E0EA93A1E00E94BB05A8ECB4E00E94A7
:100D6200F105A8EBBBE00E940707E8EBFBE0CDCF63
:100D7200FA93EA9380E00E944E052496E0E0EA931B
:100D82000895E3B3E7700E2F07300895E02FF0E0E7
:100D9200E630A0E0FA0708952A93AD85BE85EF8577
:100DA200F88909950895E889F9893497E88BF98BD0
:100DB2000895AD85BE85EF85F88909950895A889BE
:100DC200B98914960E945207EE83FF83AE81BF81D8
:100DD2000895A889B98914960E945207EA87FB8769
:100DE2000895DE011C960E9411070E945207089581
:100DF2000E94AF05A3E0B0E00C940707A0E30E94B5
:100E02009B0588EC90E00197F1F70895109639F070
:100E120080ED97E00197F1F7A8951197C9F708952A
:100E22000024AF0DB01D0895F195E195F0400895AD
:100E32006F2F660F660B762F08950024112490E120
:100E4200AA0FBB1F001C111C0E1A1F0A18F40E0E4B
:100E52001F1E01C0A1609A9599F7FD01D001089566
:100E620012D0EBDF0EF4E0DF0895E894B7FF04C080
:100E7200A095B09511966894F7FDD6DFDEDFFD01EF
:100E82000EF4D2DF0895E894F7FF02C0CDDF689434
:100E9200B7FF06C0A095B095119600F8039400FA2A
:100EA2000895ED91FC91119708950590F491E02D2C
:100EB20008957A936A93FA93EA93089500240A169E
:100EC2000B0608955A934A933A932A931A930A93D4
:100ED20008955D814C813B812A81198108810895A1
:00000001FF
