:0A0000000C9488000C94E1000C94AD
:10000A0000000C9400000C9400000C9400000C9466
:10001A0000000C9400000C9400000C94B5000C94A1
:10002A0000000C9400000C9400000C9400000C9446
:10003A0000000C9400000C9400000C9400000C9436
:10004A0000000C9400000C9400001027E8036400E0
:10005A000A000100001000011000010000001E004B
:10006A0007000001202020253032643A253032640E
:10007A003A253032642020504D002020202530328D
:10008A00643A253032643A253032642020414D00EA
:10009A00202020436C69656E742023253033642048
:1000AA00202000476F20546F20436F756E7465726D
:1000BA00232530326421002025336420436C69658E
:1000CA006E7428732920002020204265666F7265AD
:1000DA0020596F752020200001002D4E414E004905
:1000EA004E46000080C0080004006600010060025D
:1000FA0083000100610283000100A302E200020002
:10010A00A702EE000000F894EE27ECBBF1E0FBBF7B
:10011A00EBBFE5BF8DE0A2E0BB27ED938A95E9F737
:10012A0080E098E0A0E6ED930197E9F7E0EFF0E0D0
:10013A0085919591009761F0A591B59105901590DB
:10014A00BF01F00105900D920197E1F7FB01F0CF95
:10015A00EFE5EDBFE8E0EEBFC0E6D2E00C94D502D1
:10016A00EA93FA93EFB7EA93E5E8EDBDEEEEECBD5C
:10017A00EBE3F0E0E415F505B9F444245524E6155B
:10018A00F70571F466247724E7E1F0E0E815F9054C
:10019A0019F48824992403C0F40131964F0103C04D
:1001AA00F30131963F0103C0F20131962F01E99123
:1001BA00EFBFF991E99118950A921A92FA926A9305
:1001CA007A938A939A93AA93BA93EA93FA93EFB794
:1001DA00EA931A93EBD21E2FEBB7E064EBBFE091E0
:1001EA008E02F0918F02309709F0BAC11F3F09F4CD
:1001FA00B6C1EDE0F0E08E169F064CF0E815F90561
:10020A0029F4EEE1F0E0E615F7050CF407C0E1E0A9
:10021A00F0E0E0939002F093910205C0E0E0E093F1
:10022A009002E0939102E12FF0E0E130A0E0FA07BA
:10023A0009F065C00E947E0609F460C00E94840627
:10024A00F60131966F01E0916E02F0916F023097DC
:10025A0041F40E948E060E949E06A1E0B0E060D2A0
:10026A004AC0E0917002F0917102309741F40E9405
:10027A00AB060E949E06A2E0B0E052D23CC0E091DA
:10028A007202F0917302309741F40E94BB060E94F9
:10029A009E06A3E0B0E044D22EC0E0917402F09131
:1002AA007502309741F40E94CB060E949E06A4E094
:1002BA00B0E036D220C0E0917602F0917702309712
:1002CA0041F40E94DB060E949E06A5E0B0E028D217
:1002DA0012C00E94EB06A0916202B0916302F6017D
:1002EA00EA1BFB0BE0938C02F0938D02A0918C0227
:1002FA00B0918D023AD2E0E00E94F20630C1E230BB
:10030A00A0E0FA0761F50E947E0641F10E94840688
:10031A00E0916402F09165023196E0936402F093F1
:10032A006502E0917802F0917902309761F40E94B7
:10033A00F7060E94EB060E9407070E940C07E0E0FE
:10034A000E94F2060BC02297A0916602B091670242
:10035A00E0916402F09165020E94120700C1E33045
:10036A00A0E0FA0761F50E947E0641F10E94840628
:10037A00E0916802F09169023196E0936802F09385
:10038A006902E0917A02F0917B02309761F40E944F
:10039A001C070E94EB060E942C070E943107E0E02E
:1003AA000E94F2060BC02297A0916A02B0916B02DA
:1003BA00E0916802F09169020E941207D0C0E93008
:1003CA00A0E0FA07D9F40E9437070E943D07EC150E
:1003DA00FD059CF40E94EB060E943D073196E093CE
:1003EA007E02F0937F02FA93EA93A1E0B0E098D1FB
:1003FA000E948E06E0E00E94F206B1C0E830A0E05A
:10040A00FA07C9F40E9442070E9448079CF40E9416
:10041A00EB060E943D073196E0938002F093810239
:10042A00FA93EA93A2E0B0E07BD10E94AB06E0E047
:10043A000E94F20694C0E730A0E0FA07C9F40E94CD
:10044A004C070E9448079CF40E94EB060E943D0755
:10045A003196E0938202F0938302FA93EA93A3E03F
:10046A00B0E05ED10E94BB06E0E00E94F20677C0CF
:10047A00E630A0E0FA07C9F40E9452070E94480732
:10048A009CF40E94EB060E943D073196E093840299
:10049A00F0938502FA93EA93A4E0B0E041D10E9476
:1004AA00CB06E0E00E94F2065AC0E530A0E0FA0767
:1004BA00C9F40E9458070E9448079CF40E94EB0660
:1004CA000E943D073196E0938602F0938702FA93E1
:1004DA00EA93A5E0B0E024D10E94DB06E0E00E94A6
:1004EA00F2063DC0E430A0E0FA07E1F40E945E079C
:1004FA000E940707A0916402B0916502EA17FB0700
:10050A0084F40E94EB060E9407073196E093880262
:10051A00F09389020E940C070E94F706E0E00E940D
:10052A00F2061DC03097D9F40E9464070E942C0776
:10053A00A0916802B0916902EA17FB0784F40E944D
:10054A00EB060E942C073196E0938A02F0938B0205
:10055A000E9431070E941C07E0E00E94F20611C0C7
:10056A000E946A070E9442070E944C070E94520793
:10057A000E9458070E945E070E946407E0E00E94FA
:10058A00F2061991E991EFBFF991E991B991A9910F
:10059A009991899179916991F99019900990189591
:1005AA00EFEFE7BBE0E0E8BBE0EFE4BBEFE0E5BB81
:1005BA00EBB7E064EBBFE2E0E5BFE0E0E4BFE0E414
:1005CA00EABFE0E0EFBDE4E0EEBDE5E8EDBDEEEE4A
:1005DA00ECBDE0E0E7BDE6BDEBBDEABDE9BDE8BDC7
:1005EA0078940E946A070E9442070E944C070E9460
:1005FA0052070E9458070E945E070E946407E0E0C3
:10060A000E94F206E0E0E0939002E0939102A0E1FA
:10061A000E944F06BB2039F4E2E9F2E0FA93EA932A
:10062A00EEE6F0E006C0E2E9F2E0FA93EA93E4E8E3
:10063A00F0E0FA93EA93F4010E948607F3010E941C
:10064A008607F2010E9486078CE00E949B0560964D
:10065A000E948B07A2E9B2E00E943E06A8EEB3E030
:10066A000E940708E8EEF3E00E949007D3CFFFCF7D
:10067A00BA93AA930E946108AE81BF81EC911E2FA2
:10068A00A885B985EC910E2FAA85BB85EC913E2FE2
:10069A00AC85BD85E8EEF3E00E943108EC87FD8762
:1006AA00EC851E0F1C3340F00F5FA12FBB27ECE334
:1006BA00F0E00E9436081E2F0C3340F03F5FA02F57
:1006CA00BB27ECE3F0E00E9436080E2F3D3090F095
:1006DA00A32FBB27ECE0F0E00E9436083E2FAC8146
:1006EA00BD81EC91E03011F0E0E001C0E1E0AC81C5
:1006FA00BD81EC93E12FAE81BF81F0E0ED93FC93D5
:10070A00E02FA885B985F0E0ED93FC93E32FAA8545
:10071A00BB85F0E0ED93FC930E9468082E9608953D
:10072A000E94A40700E612E00E9417061A930A9391
:10073A00EAE9F0E0FA93EA93E885F9850E948607E8
:10074A000E94A9070E948B07D8010E943E061A93AD
:10075A000A93EDEAF0E00E94AE070E94A9070E9400
:10076A00B30719810881269608950E94A40701E615
:10077A0012E00E9417061A930A93E1ECF0E00E9435
:10078A00AE070E94A9070E948B07D8010E943E0665
:10079A001A930A93E1EDF0E00E94AE070E94A907BE
:1007AA000E94B30719810881249608951A930A931F
:1007BA001FEFEFEFE5BBAC980E94C20781F00E94E1
:1007CA00C70711F411E00BC0E530A0E0FA0711F4F5
:1007DA0012E005C0E330A0E0FA0709F413E0AC9A8E
:1007EA00AD980E94C20781F00E94C70711F414E075
:1007FA000BC0E530A0E0FA0711F415E005C0E330BC
:10080A00A0E0FA0709F416E0AD9AAE980E94C20772
:10081A0081F00E94C70711F417E00BC0E530A0E091
:10082A00FA0711F418E005C0E330A0E0FA0709F46A
:10083A0019E0AE9AAF98999B10E0AF9AEFE0E5BB4A
:10084A00E12F0991199108950E94A407AA81BB81F9
:10085A0012960E945208309759F1AA81BB811496C8
:10086A000E9452088F01309761F00230E0E01E07C3
:10087A0098F0F80131978F01AA81BB811496ED9304
:10088A00FC93AA81BB811296ED91FD913196FE935C
:10089A00EE933197AC81A083AA81BB810E94520852
:1008AA00FF232AF0ED91FD913196FE93EE9306C057
:1008BA00AA81BB81EFEFFFEFED93FC9319810881C9
:1008CA0025960895BA93AA9326970E945F0810E086
:1008DA00AC85BD85E0E0F0E0ED93FC93EA89FB8905
:1008EA003196EA8BFB8B3197E4912E2FE03009F495
:1008FA0015C1E12FE03039F4253211F411E002C0BC
:10090A000E94CD070AC1E130A9F4253219F40E94E8
:10091A00CD0702C112E040E000E02D3211F401E0FF
:10092A00FCC02B3211F44BE2F8C0203211F440E241
:10093A00F4C002C0E23039F450E013E0203311F47D
:10094A000068EBC003C0E33009F0E7C0203310F0C1
:10095A002A3308F007C0AAE05A9F502DE22FE0532D
:10096A005E0FDBC0E22FE33649F40E94D407E88920
:10097A00F989A481AA930E94DA07CEC0E33741F429
:10098A000E94D4070E94E0070E94CF051E2F0AC0CA
:10099A00E03761F40E94D4070E94E0070E94DB0559
:1009AA001E2F086002600F7730E034C0E43611F081
:1009BA00E93611F4046002C0E53731F4E4E5F0E009
:1009CA00EE83FF8315E00CC0E83511F4086003C01C
:1009DA00E83709F0A1C0EEE5F0E0EE83FF8314E00A
:1009EA0002FF14C00E94D4070E94EA07AB85AA231B
:1009FA003AF4EA85FB850E941508EA87FB874DE2EF
:100A0A00403011F01F5F01C00B7F04C00E94D40761
:100A1A000E94EA0700FD11C0151778F407FF08C005
:100A2A0002FF04C00B7F242F115001C020E301C034
:100A3A0020E20E94CD075150EFCF312F01FF17C09E
:100A4A003030A1F003FF06C0EE81FF812591EE83CD
:100A5A00FF8305C0AE81BF812D91AE83BF830E9403
:100A6A00CD07503009F051503150EACF4BC020E346
:100A7A00EE81FF810E945608E887F987EE81FF819F
:100A8A003296EE83FF83E885F985AA85BB85AE1782
:100A9A00BF0750F02F5FA885B985EA85FB85EA1B59
:100AAA00FB0BEA87FB87EFCF2A3328F003FF02C04C
:100ABA00295F01C0295D04FD1AC0213320F4A885ED
:100ACA00B985119709F409C0531710F000FF01C046
:100ADA0013C020E207FF0BC020E3006102FF07C03A
:100AEA000B7F4A930E94DA07503009F051500E9456
:100AFA00CD07503009F051503150A885B985129769
:100B0A0008F0B5CF00FF08C0503031F05150E0E294
:100B1A00EA930E94DA07F8CF10E0E0CEAC85BD85F3
:100B2A000E9452080E94660864960895FF92F82E61
:100B3A0026970E9461080E94F207309719F4EFEF96
:100B4A00FFEF23C0DE0116960E9411088D010E9454
:100B5A00F207EE83FF83E0E0E887E987DE011A9671
:100B6A000E9411080E945208FA93EA931A930A9370
:100B7A00E9E2F4E0FA93EA93DE011A96A3DE9F0112
:100B8A00AE81BF81E0E0EC93F9010E9468082A96E1
:100B9A00FF900895BA93AA93A991B991EE27FF27D6
:100BAA006D91662311F03196FBCF0895BA93AA93FB
:100BBA00AA27BB27E991F9910590002011F0119617
:100BCA00FBCFFD010895AA93E8B3EF70AE2FE88139
:100BDA00E07FEA2BE8BB8DE08A95F1F7C29A8DE0B7
:100BEA008A95F1F7C2988DE08A95F1F780C0AA93A9
:100BFA00A881E9DFE881E295E883A881E4DF85E856
:100C0A008A95F1F774C0AA93E881F0E0E955FD4F9F
:100C1A00E081A981AE0FEBDFA980E881E093AB0206
:100C2A0022960895A2E00E94F907ACE0E0DFA1E075
:100C3A000E94F907E0E0E093AB02AE2E0895AA9372
:100C4A00A881AA3021F0E091AC02AE1660F0E0E093
:100C5A00EA93A091AB02AF5FA093AB02D4DFA88165
:100C6A00AA3009F444C0A394C09AA881C0DFC098EE
:100C7A003EC0BA93AA931A93A981BA81ED91A98326
:100C8A00BA831E2FE03019F0A12FD9DFF5CF1881D2
:100C9A0023960895AA93E7B3E06FE7BBBA9AB89A86
:100CAA00B99AC298C098C198E881E093AC02E0581A
:100CBA00E093A902E881E054E093AA02A4E1B0E03B
:100CCA000E9407080E94FF070E94FF070E94FF0771
:100CDA00A0E279DF88EC90E00197F1F7A8E287DFDC
:100CEA00A4E085DFA5E883DFA6E081DF9BDF21960C
:100CFA000895E0919002F091910230970895E09161
:100D0A006C02F0916D023196E0936C02F0936D02E1
:100D1A000895E1E0F0E0E0936E02F0936F02E09153
:100D2A006202F09163023196E0936202F0936302E9
:100D3A000895E1E0F0E0E0937C02F0937D02E09117
:100D4A006202F0916302FA93EA930895E1E0F0E017
:100D5A00E0937002F0937102E0916202F0916302F3
:100D6A003196E0936202F09363020895E1E0F0E0C5
:100D7A00E0937202F0937302E0916202F0916302CF
:100D8A003196E0936202F09363020895E1E0F0E0A5
:100D9A00E0937402F0937502E0916202F0916302AB
:100DAA003196E0936202F09363020895E1E0F0E085
:100DBA00E0937602F0937702E0916202F091630287
:100DCA003196E0936202F09363020895E1E0F0E065
:100DDA00E0937C02F0937D020895E0937C02E09315
:100DEA007D020895E1E0F0E0E0937802F093790261
:100DFA00E0916602F09167023196E0936602F09301
:100E0A0067020895E0916602F09167020895FA93E5
:100E1A00EA93A6E0B0E00C949503EA1BFB0BE88387
:100E2A00F983A881B9810E94BA0322960895E1E064
:100E3A00F0E0E0937A02F0937B02E0916A02F0918B
:100E4A006B023196E0936A02F0936B020895E09187
:100E5A006A02F0916B020895FA93EA93A7E0B0E070
:100E6A000C949503E0E0E0936E02E0936F0208951C
:100E7A00E0916202F09163020895E0E0E09370026B
:100E8A00E09371020895F4DFEC15FD050895E0E0A2
:100E9A00E0937202E09373020895E0E0E093740233
:100EAA00E09375020895E0E0E0937602E09377021A
:100EBA000895E0E0E0937802E09379020895E0E093
:100ECA00E0937A02E0937B020895CC24DD24E0E0EB
:100EDA00E0936202E0936302E0936402E0936502A6
:100EEA00E0936602E0936702E0936802E093690286
:100EFA00E0936A02E0936B02E0936C02E0936D0266
:100F0A00B1CF0E9419080E945A080895E0E0EA93B6
:100F1A00A0E00C940806FA93EA93E8E0F0E0FA936A
:100F2A00EA93E6E0F0E0FA93EA93E4E0F0E0FA9379
:100F3A00EA93ABE0B0E00E943D030C941706BA9323
:100F4A00AA931A930A93089584E00E949B0528960F
:100F5A000895FA93EA93EE81FF81D3CFE0E0EA9312
:100F6A00A1E00E940806D8010E943E06A8EBBBE059
:100F7A000E940708E8EBFBE0CECFE3B3E7700E2F41
:100F8A0007300895E02FF0E0E630A0E0FA07089570
:100F9A002A93AD85BE85EF85F88909950895E88974
:100FAA00F9893497E88BF98B0895AD85BE85EF856D
:100FBA00F88909950895A889B98914960E94520852
:100FCA00EE83FF83AE81BF810895A889B9891496FB
:100FDA000E945208EA87FB870895DE011C960E9448
:100FEA0011080E94520808950E94FC05A3E0B0E08F
:100FFA000C940708A0E30E94E80588EC90E00197AA
:10100A00F1F70895109639F080ED97E00197F1F71E
:10101A00A8951197C9F708950024AF0DB01D08953A
:10102A00F195E195F04008956F2F660F660B762FC4
:10103A0008950024112490E1AA0FBB1F001C111C63
:10104A000E1A1F0A18F40E0E1F1E01C0A1609A95EF
:10105A0099F7FD01D001089512D0EBDF0EF4E0DF1D
:10106A000895E894B7FF04C0A095B09511966894C6
:10107A00F7FDD6DFDEDFFD010EF4D2DF0895E89436
:10108A00F7FF02C0CDDF6894B7FF06C0A095B09500
:10109A00119600F8039400FA0895ED91FC911197C6
:1010AA0008950590F491E02D08957A936A93FA933E
:1010BA00EA9308955A934A933A932A931A930A936E
:1010CA0008955D814C813B812A81198108810895A7
:00000001FF
