:0E0000000C94A4000C94D8000C9400000C94F6
:10000E0000000C9400000C9400000C9400000C9462
:10001E0000000C9400000C94D1000C9400000C9481
:10002E0000000C9400000C9400000C9400000C9442
:10003E0000000C9400000C9400000C9400000C9432
:10004E0000000C9400001027E80364000A00010071
:10005E00001000011000010000001E00070000014A
:10006E00010000202020253032643A253032643AD7
:10007E00253032642020504D00202020253032645F
:10008E003A253032643A253032642020414D00202A
:10009E002020436C69656E74202325303364202044
:1000AE002000476F20546F20436F756E7465722366
:1000BE002530326421002025336420436C69656E3F
:1000CE007428732920002020204265666F726520F7
:1000DE00596F752020200020202020536F727279D6
:1000EE00203A282020202000202054696D65277397
:1000FE00204F766572212020000001002D4E414ECA
:10010E0000494E46000080C0080004006600010051
:10011E0086026E0001006002700001006102700034
:10012E00010062027000010063027000010087028C
:10013E00080102008B0214010000F894EE27ECBBBC
:10014E00F1E0FBBFEBBFE5BF8DE0A2E0BB27ED9377
:10015E008A95E9F780E098E0A0E6ED930197E9F73C
:10016E00E6E1F1E085919591009761F0A591B59149
:10017E0005901590BF01F00105900D920197E1F7E2
:10018E00FB01F0CFEFE5EDBFE8E0EEBFC0E6D2E059
:10019E000C947202EA93E5E8EDBDEEEEECBDE9914A
:1001AE0018950A921A92FA926A937A938A939A936C
:1001BE00AA93BA93EA93FA93EFB7EA931A93ABD250
:1001CE001E2FEBB7E064EBBF1F3F09F475C1BB20D8
:1001DE0089F4E1E0F0E0E815F9054CF0E815F905D1
:1001EE0029F4EEE1F0E06E167F060CF403C0E0E0B9
:1001FE00E0938602E12FF0E0E130A0E0FA0709F08B
:10020E0056C0E0918602E03009F44FC00E943E06CF
:10021E00F60131966F01AA2039F40E9448060E9419
:10022E0054060E94590640C0E0917002E03041F43D
:10023E000E945F060E946906A2E0B0E01BD234C0A5
:10024E00E0917102E03041F40E946D060E94690651
:10025E00A3E0B0E00FD228C0E0917202E03041F48A
:10026E000E9477060E946906A4E0B0E003D21CC08B
:10027E00E0917302E03041F40E9481060E9469060B
:10028E00A5E0B0E0F7D110C0A0916402B091650274
:10029E00F601EA1BFB0BE0938402F0938502A0911A
:1002AE008402B091850206D201C020D205C1E2308F
:1002BE00A0E0FA0741F5E0918602E03011F10E94CC
:1002CE003E06E0916602F09167023196E093660277
:1002DE00F0936702E0917402E03039F40E948B06CD
:1002EE000E9498060E949D060BC02297A09168025C
:1002FE00B0916902E0916602F09167020E94A30636
:10030E0001C0F4D1D9C0E330A0E0FA0741F5E09185
:10031E008602E03011F10E943E06E0916A02F091F1
:10032E006B023196E0936A02F0936B02E0917502D4
:10033E00E03039F40E94AD060E94BA060E94BF0654
:10034E000BC02297A0916C02B0916D02E0916A02EF
:10035E00F0916B020E94A30601C0C8D1ADC0E93076
:10036E00A0E0FA0781F4AA240E94C5065CF40E945C
:10037E0054063196E0937602F09377020E94590666
:10038E000E94480699C0E830A0E0FA07A9F4E0E020
:10039E00E09370020E94C50674F40E9454063196D2
:1003AE00E0937802F0937902FA93EA93A2E0B0E038
:1003BE0061D10E945F0680C0E730A0E0FA07A9F481
:1003CE00E0E0E09371020E94C50674F40E945406A8
:1003DE003196E0937A02F0937B02FA93EA93A3E0CC
:1003EE00B0E048D10E946D0667C0E630A0E0FA0783
:1003FE00A9F4E0E0E09372020E94C50674F40E9434
:10040E0054063196E0937C02F0937D02FA93EA93C0
:10041E00A4E0B0E02FD10E9477064EC0E530A0E0F8
:10042E00FA07A9F4E0E0E09373020E94C50674F4A3
:10043E000E9454063196E0937E02F0937F02FA9367
:10044E00EA93A5E0B0E016D10E94810635C0E430F3
:10045E00A0E0FA07C1F4E0E0E09374020E9498066F
:10046E00A0916602B0916702EA17FB075CF40E9446
:10047E0098063196E0938002F09381020E949D06C9
:10048E000E948B0619C03097B9F4E0E0E093750234
:10049E000E94BA06A0916A02B0916B02EA17FB079E
:1004AE005CF40E94BA063196E0938202F0938302C6
:1004BE000E94BF060E94AD061991E991EFBFF99116
:1004CE00E991B991A9919991899179916991F9904F
:1004DE0019900990189500E612E0EFEFE7BBE0E007
:1004EE00E8BBE0EFE4BBEFE0E5BBEBB7E064EBBFEE
:1004FE00E2E0E5BFE0E0E4BFE0E4EABFE0E0EFBD4C
:10050E00E4E0EEBDE5E8EDBDEEEEECBDE0E0E7BD0E
:10051E00E6BDEBBDEABDE9BDE8BD7894CC24DD2493
:10052E00E0E0E0936402E0936502E0936602E093FC
:10053E006702E0936802E0936902E0936A02E09337
:10054E006B02E0936C02E0936D02E0936E02E09317
:10055E006F02AA24E0937002E0937102E09372029C
:10056E00E0937302E0937402E0937502E1E0E0938E
:10057E008602A0E10E940F06BB2029F41A930A936B
:10058E00E1E7F0E004C01A930A93E7E8F0E0FA938B
:10059E00EA93F4010E94C906F3010E94C906F20112
:1005AE000E94C9068CE00E94520560960E94CE06FB
:1005BE00A8EEB3E00E945907E8EEF3E00E94D606DB
:1005CE00DBCFFFCFBA93AA930E94B307AE81BF8150
:1005DE00EC911E2FA885B985EC910E2FAA85BB85AF
:1005EE00EC913E2FAC85BD85E8EEF3E00E948307CB
:1005FE00EC87FD87EC851E0F1C3340F00F5FA12F9B
:10060E00BB27ECE3F0E00E9488071E2F0C3340F06E
:10061E003F5FA02FBB27ECE3F0E00E9488070E2F70
:10062E003D3090F0A32FBB27ECE0F0E00E9488074E
:10063E003E2FAC81BD81EC91E03011F0E0E001C0C5
:10064E00E1E0AC81BD81EC93E12FAE81BF81F0E0A2
:10065E00ED93FC93E02FA885B985F0E0ED93FC9324
:10066E00E32FAA85BB85F0E0ED93FC930E94BA07B9
:10067E002E9608950E94EA0601E612E00E94EF0609
:10068E00EDE9F0E0FA93EA93E885F9850E94C90650
:10069E000E94F4060E94CE061A930A93E0EBF0E055
:1006AE000E94F9060E94F4060E94FE061981088136
:1006BE00269608950E94EA0602E612E00E94EF06D0
:1006CE00E4ECF0E00E94F9060E94F4060E94CE06C9
:1006DE001A930A93E4EDF0E00E94F9060E94F406E4
:1006EE000E94FE0619810881249608951A930A9392
:1006FE0003E612E00E94EF06E5EEF0E00E940D0721
:10070E000E94CE061A930A93E6EFF0E00E940D07C0
:10071E000E94FE064BC01A930A931FEFEFEFE5BB44
:10072E00AC980E94140781F00E94190711F411E091
:10073E000BC0E530A0E0FA0711F412E005C0E3307B
:10074E00A0E0FA0709F413E0AC9AAD980E941407E2
:10075E0081F00E94190711F414E00BC0E530A0E0FF
:10076E00FA0711F415E005C0E330A0E0FA0709F42A
:10077E0016E0AD9AAE980E94140781F00E941907F8
:10078E0011F417E00BC0E530A0E0FA0711F418E001
:10079E0005C0E330A0E0FA0709F419E0AE9AAF986D
:1007AE00999B10E0AF9AEFE0E5BBE12F099119910B
:1007BE0008950E94EA06AA81BB8112960E94A407A0
:1007CE00309759F1AA81BB8114960E94A4078F011C
:1007DE00309761F00230E0E01E0798F0F801319793
:1007EE008F01AA81BB811496ED93FC93AA81BB81E4
:1007FE001296ED91FD913196FE93EE933197AC8169
:10080E00A083AA81BB810E94A407FF232AF0ED9149
:10081E00FD913196FE93EE9306C0AA81BB81EFEF58
:10082E00FFEFED93FC931981088125960895BA93F5
:10083E00AA9326970E94B10710E0AC85BD85E0E033
:10084E00F0E0ED93FC93EA89FB893196EA8BFB8B02
:10085E003197E4912E2FE03009F415C1E12FE030ED
:10086E0039F4253211F411E002C00E941F070AC1AB
:10087E00E130A9F4253219F40E941F0702C112E0DB
:10088E0040E000E02D3211F401E0FCC02B3211F4F7
:10089E004BE2F8C0203211F440E2F4C002C0E23064
:1008AE0039F450E013E0203311F40068EBC003C0BC
:1008BE00E33009F0E7C0203310F02A3308F007C008
:1008CE00AAE05A9F502DE22FE0535E0FDBC0E22FBD
:1008DE00E33649F40E942607E889F989A481AA9390
:1008EE000E942C07CEC0E33741F40E9426070E94D7
:1008FE0032070E9486051E2F0AC0E03761F40E945F
:10090E0026070E9432070E9492051E2F0860026081
:10091E000F7730E034C0E43611F0E93611F404609C
:10092E0002C0E53731F4E4E5F0E0EE83FF8315E035
:10093E000CC0E83511F4086003C0E83709F0A1C017
:10094E00EEE5F0E0EE83FF8314E002FF14C00E9498
:10095E0026070E943C07AB85AA233AF4EA85FB855D
:10096E000E946707EA87FB874DE2403011F01F5F58
:10097E0001C00B7F04C00E9426070E943C0700FDA9
:10098E0011C0151778F407FF08C002FF04C00B7FD3
:10099E00242F115001C020E301C020E20E941F0746
:1009AE005150EFCF312F01FF17C03030A1F003FFB0
:1009BE0006C0EE81FF812591EE83FF8305C0AE81D7
:1009CE00BF812D91AE83BF830E941F07503009F067
:1009DE0051503150EACF4BC020E3EE81FF810E948F
:1009EE00A807E887F987EE81FF813296EE83FF83B1
:1009FE00E885F985AA85BB85AE17BF0750F02F5F36
:100A0E00A885B985EA85FB85EA1BFB0BEA87FB8780
:100A1E00EFCF2A3328F003FF02C0295F01C0295D02
:100A2E0004FD1AC0213320F4A885B985119709F465
:100A3E0009C0531710F000FF01C013C020E207FFDA
:100A4E000BC020E3006102FF07C00B7F4A930E9498
:100A5E002C07503009F051500E941F07503009F0FA
:100A6E0051503150A885B985129708F0B5CF00FFC7
:100A7E0008C0503031F05150E0E2EA930E942C074A
:100A8E00F8CF10E0E0CEAC85BD850E94A4070E9491
:100A9E00B80764960895FF92F82E26970E94B30722
:100AAE000E944407309719F4EFEFFFEF23C0DE01E9
:100ABE0016960E9463078D010E944407EE83FF8302
:100ACE00E0E0E887E987DE011A960E9463070E943C
:100ADE00A407FA93EA931A930A93E0EEF3E0FA93DB
:100AEE00EA93DE011A96A3DE9F01AE81BF81E0E09C
:100AFE00EC93F9010E94BA072A96FF900895BA93D3
:100B0E00AA93A991B991EE27FF276D91662311F053
:100B1E003196FBCF0895BA93AA93AA27BB27E991E2
:100B2E00F9910590002011F01196FBCFFD0108956B
:100B3E00AA93E8B3EF70AE2FE881E07FEA2BE8BB13
:100B4E008DE08A95F1F7C29A8DE08A95F1F7C298F9
:100B5E008DE08A95F1F789C0AA93A881E9DFE88133
:100B6E00E295E883A881E4DF85E88A95F1F77DC0F8
:100B7E00AA93E881F0E0E557FD4FE081A981AE0F21
:100B8E00EBDFE981E0938F02E881E09390022296F9
:100B9E000895A2E00E944B07ACE0DEDFA1E00E94C8
:100BAE004B07E0E0E0939002E0938F020895AA9342
:100BBE00A881AA3031F0E0919102A0918F02AE1778
:100BCE0060F0E0E0EA93A0919002AF5FA0939002F4
:100BDE00CFDFA881AA3009F448C0E0918F02EF5F01
:100BEE00E0938F02C09AA881B7DFC0983EC0BA9337
:100BFE00AA931A93A981BA81ED91A983BA831E2F64
:100C0E00E03019F0A12FD3DFF5CF18812396089588
:100C1E00AA93E7B3E06FE7BBBA9AB89AB99AC298AB
:100C2E00C098C198E881E0939102E058E0938D025C
:100C3E00E881E054E0938E02A4E1B0E00E945907EF
:100C4E000E9451070E9451070E945107A0E270DFD7
:100C5E0088EC90E00197F1F7A8E27EDFA4E07CDF5C
:100C6E00A5E87ADFA6E078DF94DF21960895E0917B
:100C7E006E02F0916F023196E0936E02F0936F0266
:100C8E000895E1E0AE2EE0916402F0916502319696
:100C9E00E0936402F09365020895E0916402F0918E
:100CAE0065020895FA93EA93A1E0B0E00C94410333
:100CBE00E1E0E0937002F1DF3196E0936402F0938D
:100CCE0065020895EADFFA93EA930895E1E0E0936E
:100CDE007102E3DF3196E0936402F09365020895AA
:100CEE00E1E0E0937202D9DF3196E0936402F09373
:100CFE0065020895E1E0E0937302CFDF3196E09351
:100D0E006402F09365020895E1E0E0937402E091CD
:100D1E006802F09169023196E0936802F0936902DD
:100D2E000895E0916802F09169020895FA93EA93AA
:100D3E00A6E0B0E00C944103EA1BFB0BE883F983B9
:100D4E00A881B9810E94610322960895E1E0E093A3
:100D5E007502E0916C02F0916D023196E0936C0297
:100D6E00F0936D020895E0916C02F0916D0208957A
:100D7E00FA93EA93A7E0B0E00C9441038EDFEC15F2
:100D8E00FD0508950E946B070E94AC070895E0E0F0
:100D9E00EA93A0E00E94BF05D8010C94FE05FA93D9
:100DAE00EA93E8E0F0E0FA93EA93E6E0F0E0FA93F3
:100DBE00EA93E4E0F0E0FA93EA93ABE0B0E00E944D
:100DCE00E9020C94D005BA93AA931A930A93089544
:100DDE000E94D0051A930A93089584E00E9452054A
:100DEE0028960895FA93EA93EE81FF81CBCFE0E047
:100DFE00EA93A1E00E94BF05D8010E94FE05A8EB70
:100E0E00BBE00E945907E8EBFBE0C9CFFA93EA93E7
:100E1E0080E00E94520524960895E3B3E7700E2FEA
:100E2E0007300895E02FF0E0E630A0E0FA070895CD
:100E3E002A93AD85BE85EF85F88909950895E889D1
:100E4E00F9893497E88BF98B0895AD85BE85EF85CA
:100E5E00F88909950895A889B98914960E94A4075E
:100E6E00EE83FF83AE81BF810895A889B989149658
:100E7E000E94A407EA87FB870895DE011C960E9454
:100E8E0063070E94A40708950E94B305A3E0B0E093
:100E9E000C945907A0E30E949F0588EC90E00197FF
:100EAE00F1F70895109639F080ED97E00197F1F77C
:100EBE00A8951197C9F708950024AF0DB01D089598
:100ECE00F195E195F04008956F2F660F660B762F22
:100EDE0008950024112490E1AA0FBB1F001C111CC1
:100EEE000E1A1F0A18F40E0E1F1E01C0A1609A954D
:100EFE0099F7FD01D001089512D0EBDF0EF4E0DF7B
:100F0E000895E894B7FF04C0A095B0951196689423
:100F1E00F7FDD6DFDEDFFD010EF4D2DF0895E89493
:100F2E00F7FF02C0CDDF6894B7FF06C0A095B0955D
:100F3E00119600F8039400FA0895ED91FC91119723
:100F4E0008950590F491E02D08957A936A93FA939B
:100F5E00EA9308955A934A933A932A931A930A93CB
:100F6E0008955D814C813B812A8119810881089504
:00000001FF
