:040000000C947200EA
:100004000C94CB000C9400000C9400000C940000A1
:100014000C9400000C9400000C9400000C9400005C
:100024000C949F000C9400000C9400000C940000AD
:100034000C9400000C9400000C9400000C9400003C
:100044000C9400000C9400000C9400000C9400002C
:100054001027E80364000A000100001000011000EA
:1000640001001E000700202020253032643A25308C
:1000740032643A253032642020504D00202020255F
:100084003032643A253032643A25303264202041DB
:100094004D00676F20746F206261646A65203A20A6
:1000A40000206E61666172206A6F6C6F79652073DF
:1000B400686F6D612068617374616E640000010093
:1000C4002D4E414E00494E46000080C004000600FB
:1000D40066000100C402C2000200C802CE00000093
:1000E400F894EE27ECBBF1E0FBBFEBBFE5BF8DE07E
:1000F400A2E0BB27ED938A95E9F780E098E0A0E6BB
:10010400ED930197E9F7E0EDF0E085919591009783
:1001140061F0A591B59105901590BF01F00105908E
:100124000D920197E1F7FB01F0CFEFE5EDBFE8E0B9
:10013400EEBFC0E6D2E00C94B402EA93FA93EFB7B0
:10014400EA93E5E8EDBDEEEEECBDEBE3F0E0E4159B
:10015400F505B9F444245524E615F70571F466242D
:100164007724E7E1F0E0E815F90519F488249924E7
:1001740003C0F40131964F0103C0F30131963F01EE
:1001840003C0F20131962F01E991EFBFF991E99192
:1001940018950A921A92FA926A937A938A939A9386
:1001A400AA93BA93EA93FA93EFB7EA931A9393D282
:1001B4001E2FEBB7E064EBBFE091A502F091A6021D
:1001C400309709F0AFC11F3F09F4ABC1EDE0F0E097
:1001D4008E169F064CF0E815F90529F4EEE1F0E0DF
:1001E400E615F7050CF407C0E1E0F0E0E093A702A0
:1001F400F093A80205C0E0E0E093A702E093A80210
:10020400E12FF0E0E130A0E0FA0709F061C00E94BC
:100214005A0609F45CC00E946006F50131965F013C
:10022400E0916A02F0916B02309741F40E946A06F1
:100234000E947406A1E0B0E0FFD146C0E0916C02D8
:10024400F0916D02309741F40E947D060E9474067D
:10025400A2E0B0E0F1D138C0E0916E02F0916F02FB
:10026400309741F40E9487060E947406A3E0B0E030
:10027400E3D12AC0E0917002F0917102309741F409
:100284000E9491060E947406A4E0B0E0D5D11CC07F
:10029400E0917202F0917302309741F40E949B0640
:1002A4000E947406A5E0B0E0C7D10EC00E94A50666
:1002B400F501EC19FD09E0938802F0938902A091FD
:1002C4008802B0918902E4D1E0E00E94AC0629C121
:1002D400E230A0E0FA0761F50E945A0641F10E945B
:1002E4006006E0916002F09161023196E093600251
:1002F400F0936102E0917402F0917502309761F419
:100304000E94B1060E94A5060E94C1060E94C6066C
:10031400E0E00E94AC060BC02297A0916202B0916B
:100324006302E0916002F09161020E94CC06F9C080
:10033400E330A0E0FA0761F50E945A0641F10E94F9
:100344006006E0916402F09165023196E0936402E4
:10035400F0936502E0917602F0917702309761F4B0
:100364000E94D6060E94A5060E94E6060E94EB069D
:10037400E0E00E94AC060BC02297A0916602B09107
:100384006702E0916402F09165020E94CC06C9C044
:10039400E930A0E0FA07C1F40E94F106CA14DB04B4
:1003A40094F40E94A506F6013196E0937A02F09344
:1003B4007B02FA93EA93A1E0B0E03ED10E946A0680
:1003C400E0E00E94AC06ADC0E830A0E0FA07C1F45A
:1003D4000E94F706CA14DB0494F40E94A506F601F1
:1003E4003196E0937C02F0937D02FA93EA93A2E0C3
:1003F400B0E022D10E947D06E0E00E94AC0691C0EC
:10040400E730A0E0FA07C1F40E94FD06CA14DB0439
:1004140094F40E94A506F6013196E0937E02F093CF
:100424007F02FA93EA93A3E0B0E006D10E94870624
:10043400E0E00E94AC0675C0E630A0E0FA07C1F423
:100444000E940307CA14DB0494F40E94A506F60173
:100454003196E0938002F0938102FA93EA93A4E048
:10046400B0E0EAD00E949106E0E00E94AC0659C0D8
:10047400E530A0E0FA07C1F40E940907CA14DB04BE
:1004840094F40E94A506F6013196E0938202F0935B
:100494008302FA93EA93A5E0B0E0CED00E949B06D3
:1004A400E0E00E94AC063DC0E430A0E0FA07E1F4CD
:1004B4000E940F070E94C106A0916002B0916102E0
:1004C400EA17FB0784F40E94A5060E94C106319630
:1004D400E0938402F09385020E94C6060E94B1064E
:1004E400E0E00E94AC061DC03097D9F40E941507C5
:1004F4000E94E606A0916402B0916502EA17FB0728
:1005040084F40E94A5060E94E6063196E0938602D2
:10051400F09387020E94EB060E94D606E0E00E9458
:10052400AC0611C00E941B070E94F7060E94FD063C
:100534000E9403070E9409070E940F070E941507E3
:10054400E0E00E94AC061991E991EFBFF991E991BD
:10055400B991A9919991899179916991F990199099
:1005640009901895EFEFE7BBE0E0E8BBE0EFE4BBF0
:10057400EFE0E5BBEBB7E064EBBFE2E0E5BFE0E052
:10058400E4BFE0E4EABFE0E0EFBDE4E0EEBDE5E8AF
:10059400EDBDEEEEECBDE0E0E7BDE6BDEBBDEABDD2
:1005A400E9BDE8BD78940E941B070E94F7060E94EB
:1005B400FD060E9403070E9409070E940F070E947C
:1005C4001507E0E00E94AC06E0E0E093A702E093A8
:1005D400A802A0E10E942B0644245524E1E0F0E0A7
:1005E400E815F90529F0ECE0F0E0E815F90539F42F
:1005F400E3EBF2E0FA93EA93EAE6F0E006C0E3EB19
:10060400F2E0FA93EA93E0E8F0E0FA93EA93F40173
:100614000E943507F3010E943507F2010E94350755
:100624008CE00E942F0560960E943A07A3EBB2E08B
:100634000E943F07D3CFFFCFBA93AA930E94DB0552
:10064400E091B302EA81FB81FA93EA93A9EAB2E06A
:100654000E947C050E943A07A9EAB2E00E940906BA
:10066400E5E00E944707A6E9B0E00E941806E88189
:10067400F981FA93EA93AAE8B2E00E947C05EFE0DC
:100684000E944707AAE8B2E00E943F072496089513
:10069400BA93AA930E94DB05E091A502E881F9814F
:1006A400FA93EA93A4E9B2E00E947C050E943A0717
:1006B400A9EAB2E00E940906E4E00E944707A5EA1D
:1006C400B0E00E941806A4EFB1E00E9490070E94D7
:1006D400DB050C94D9051A930A931FEFEFEFE5BBE2
:1006E400AC980E944B0781F00E94500711F411E06E
:1006F4000BC0E530A0E0FA0711F412E005C0E330C6
:10070400A0E0FA0709F413E0AC9AAD980E944B07F5
:1007140081F00E94500711F414E00BC0E530A0E012
:10072400FA0711F415E005C0E330A0E0FA0709F474
:1007340016E0AD9AAE980E944B0781F00E945007D4
:1007440011F417E00BC0E530A0E0FA0711F418E04B
:1007540005C0E330A0E0FA0709F419E0AE9AAF98B7
:10076400999B10E0AF9AEFE0E5BBE12F0991199155
:100774000895BA93AA931A930A93AA81BB811296F5
:100784000E94A707309759F1AA81BB8114960E9451
:10079400A7078F01309761F00230E0E01E0798F060
:1007A400F80131978F01AA81BB811496ED93FC93D4
:1007B400AA81BB811296ED91FD913196FE93EE9341
:1007C4003197AC81A083AA81BB810E94A707FF2334
:1007D4002AF0ED91FD913196FE93EE9306C0AA8125
:1007E400BB81EFEFFFEFED93FC9319810881259610
:1007F4000895BA93AA9326970E94B40710E0AC8593
:10080400BD85E0E0F0E0ED93FC93EA89FB89319645
:10081400EA8BFB8B3197E4912E2FE03009F415C15C
:10082400E12FE03039F4253211F411E002C00E94C6
:1008340056070AC1E130A9F4253219F40E9456077B
:1008440002C112E040E000E02D3211F401E0FCC0EE
:100854002B3211F44BE2F8C0203211F440E2F4C020
:1008640002C0E23039F450E013E0203311F40068A0
:10087400EBC003C0E33009F0E7C0203310F02A33A3
:1008840008F007C0AAE05A9F502DE22FE0535E0FF4
:10089400DBC0E22FE33649F40E945D07E889F98959
:1008A400A481AA930E946307CEC0E33741F40E9457
:1008B4005D070E9469070E9463051E2F0AC0E03786
:1008C40061F40E945D070E9469070E946F051E2F54
:1008D400086002600F7730E034C0E43611F0E93686
:1008E40011F4046002C0E53731F4E4E5F0E0EE838E
:1008F400FF8315E00CC0E83511F4086003C0E83745
:1009040009F0A1C0EEE5F0E0EE83FF8314E002FFFE
:1009140014C00E945D070E947307AB85AA233AF4B2
:10092400EA85FB850E949E07EA87FB874DE24030FB
:1009340011F01F5F01C00B7F04C00E945D070E947D
:10094400730700FD11C0151778F407FF08C002FFF4
:1009540004C00B7F242F115001C020E301C020E20A
:100964000E9456075150EFCF312F01FF17C030308E
:10097400A1F003FF06C0EE81FF812591EE83FF8382
:1009840005C0AE81BF812D91AE83BF830E945607FF
:10099400503009F051503150EACF4BC020E3EE8182
:1009A400FF810E94AB07E887F987EE81FF813296C9
:1009B400EE83FF83E885F985AA85BB85AE17BF075B
:1009C40050F02F5FA885B985EA85FB85EA1BFB0BF0
:1009D400EA87FB87EFCF2A3328F003FF02C0295FA1
:1009E40001C0295D04FD1AC0213320F4A885B9850E
:1009F400119709F409C0531710F000FF01C013C088
:100A040020E207FF0BC020E3006102FF07C00B7F59
:100A14004A930E946307503009F051500E945607D0
:100A2400503009F051503150A885B985129708F01B
:100A3400B5CF00FF08C0503031F05150E0E2EA93E6
:100A44000E946307F8CF10E0E0CEAC85BD850E941C
:100A5400A7070E94BB0764960895FF92F82E269775
:100A64000E94B6070E947B07309719F4EFEFFFEF5F
:100A740023C0DE0116960E949A078D010E947B070F
:100A8400EE83FF83E0E0E887E987DE011A960E949F
:100A94009A070E94A707FA93EA931A930A93EBEB37
:100AA400F3E0FA93EA93DE011A96A3DE9F01AE8186
:100AB400BF81E0E0EC93F9010E94BD072A96FF9004
:100AC4000895BA93AA93A991B991EE27FF276D913E
:100AD400662311F03196FBCF0895BA93AA93AA27FF
:100AE400BB27E991F9910590002011F01196FBCFF5
:100AF400FD010895BA93AA93A991B991E991F99145
:100B040030962AF4E095F09531966DE26D93E89471
:100B140080E197E20DD088EE93E00AD084E699272D
:100B240007D08AE005D06E2F10D066276C93089505
:100B34006627E817F90720F06395E81BF90BC9F756
:100B4400662311F416F008956894605D6D9308951A
:100B5400AA93E8B3EF70AE2FE881E07FEA2BE8BBFD
:100B64008DE08A95F1F7C29A8DE08A95F1F7C298E3
:100B74008DE08A95F1F79AC0AA93A881E9DFE8810C
:100B8400E295E883A881E4DF85E88A95F1F78EC0D1
:100B9400AA93E881F0E0E853FD4FE081A981AE0F0C
:100BA400EBDFE981E093CC02E881E093CD02229669
:100BB4000895A2E00E948207ACE0DEDFA1E00E947B
:100BC4008207E0E0E093CD02E093CC020895AA937B
:100BD400A881AA3031F0E091CE02A091CC02AE17E8
:100BE40060F0E0E0EA93A091CD02AF5FA093CD0264
:100BF400CFDFA881AA3009F459C0E091CC02EF5F9D
:100C0400E093CC02C09AA881B7DFC0984FC0BA93D2
:100C1400AA931A93A981BA81ED91A983BA831E2F4D
:100C2400E03019F0A12FD3DFF5CF10C0BA93AA9307
:100C34001A93E981FA813196E983FA833197E49131
:100C44001E2FE03019F0A12FC2DFF3CF18812396B5
:100C54000895AA93E7B3E06FE7BBBA9AB89AB99A32
:100C6400C298C098C198E881E093CE02E058E0931E
:100C7400CA02E881E054E093CB02A4E1B0E00E9410
:100C840090070E9488070E9488070E948807A0E2B4
:100C94005FDF88EC90E00197F1F7A8E26DDFA4E054
:100CA4006BDFA5E869DFA6E067DF83DF219608959F
:100CB400E091A702F091A80230970895E0916802AC
:100CC400F09169023196E0936802F0936902089505
:100CD400E1E0F0E0E0936A02F0936B02F6013196F2
:100CE4006F010895E1E0F0E0E0937802F093790277
:100CF400DA92CA920895E1E0F0E0E0936C02F09396
:100D04006D02F60131966F010895E1E0F0E0E093A1
:100D14006E02F0936F02F60131966F010895E1E0DF
:100D2400F0E0E0937002F0937102F60131966F01E6
:100D34000895E1E0F0E0E0937202F0937302F601AB
:100D440031966F010895E1E0F0E0E0937802F093CA
:100D540079020895E0937802E09379020895E1E03E
:100D6400F0E0E0937402F0937502E0916202F09176
:100D740063023196E0936202F09363020895E09176
:100D84006202F09163020895FA93EA93A6E0B0E058
:100D94000C941E03EA1BFB0BE883F983A881B98139
:100DA4000E944A0322960895E1E0F0E0E09376027F
:100DB400F0937702E0916602F09167023196E09336
:100DC4006602F09367020895E0916602F09167026B
:100DD4000895FA93EA93A7E0B0E00C941E03E0E0D0
:100DE400E0936A02E0936B020895E0E0E0936C0202
:100DF400E0936D020895E0E0E0936E02E0936F02E9
:100E04000895E0E0E0937002E09371020895E0E059
:100E1400E0937202E09373020895E0E0E0937402B9
:100E2400E09375020895E0E0E0937602E0937702A0
:100E34000895AA24BB24CC24DD24E0E0E0936002DE
:100E4400E0936102E0936202E0936302E093640240
:100E5400E0936502E0936602E0936702E093680220
:100E6400E0936902BCCF0E94A2070E94AF070895D5
:100E7400E0E0EA93A0E00C94CA050E940906A8EEFB
:100E8400B3E00E9490070C94DB05EA93A0E00C9475
:100E9400CA05E3B3E7700E2F07300895E02FF0E0A2
:100EA400E630A0E0FA0708952A93AD85BE85EF8564
:100EB400F88909950895E889F9893497E88BF98BBD
:100EC4000895AD85BE85EF85F88909950895A889AB
:100ED400B98914960E94A707EE83FF83AE81BF8170
:100EE4000895A889B98914960E94A707EA87FB8701
:100EF4000895DE011C960E949A070E94A707089590
:100F04000E94BE05A3E0B0E00C949007A0E30E9409
:100F1400AA0588EC90E00197F1F70895109639F04E
:100F240080ED97E00197F1F7A8951197C9F7089517
:100F34000024AF0DB01D0895F195E195F04008959A
:100F44006F2F660F660B762F0895ED91FC91119724
:100F540008950590F491E02D08957A936A93FA9395
:100F6400EA9308955A934A933A932A931A930A93C5
:100F740008955D814C813B812A81198108810895FE
:00000001FF
