:080000000C9472000C94CB007B
:100008000C9400000C9400000C9400000C94000068
:100018000C9400000C9400000C9400000C949F00B9
:100028000C9400000C9400000C9400000C94000048
:100038000C9400000C9400000C9400000C94000038
:100048000C9400000C9400000C9400001027E803A6
:1000580064000A00010000100001100001001E00E9
:100068000700202020253032643A253032643A25B2
:100078003032642020504D00202020253032643A50
:10008800253032643A253032642020414D00676FB4
:1000980020746F206261646A65203A2000206E61D6
:1000A800666172206A6F6C6F79652073686F6D6125
:1000B8002068617374616E64000001002D4E414E2A
:1000C80000494E46000080C004000600660001009A
:1000D800C402C2000200C802CE000000F894EE2755
:1000E800ECBBF1E0FBBFEBBFE5BF8DE0A2E0BB27B7
:1000F800ED938A95E9F780E098E0A0E6ED93019703
:10010800E9F7E0EDF0E085919591009761F0A59110
:10011800B59105901590BF01F00105900D920197DA
:10012800E1F7FB01F0CFEFE5EDBFE8E0EEBFC0E699
:10013800D2E00C94B402EA93FA93EFB7EA93E5E8B5
:10014800EDBDEEEEECBDEBE3F0E0E415F505B9F43A
:1001580044245524E615F70571F466247724E7E16D
:10016800F0E0E815F90519F48824992403C0F4018E
:1001780031964F0103C0F30131963F0103C0F201EC
:1001880031962F01E991EFBFF991E99118950A92FB
:100198001A92FA926A937A938A939A93AA93BA9341
:1001A800EA93FA93EFB7EA931A93F3D21E2FEBB7B9
:1001B800E064EBBFE091A502F091A602309709F048
:1001C800AFC11F3F09F4ABC1EDE0F0E08E169F060A
:1001D8004CF0E815F90529F4EEE1F0E0E615F7052D
:1001E8000CF407C0E1E0F0E0E093A702F093A80266
:1001F80005C0E0E0E093A702E093A802E12FF0E059
:10020800E130A0E0FA0709F061C00E94BA0609F4DB
:100218005CC00E94C006F50131965F01E0916A0258
:10022800F0916B02309741F40E94CA060E94D406EE
:10023800A1E0B0E05DD246C0E0916C02F0916D02A1
:10024800309741F40E94DD060E94D406A2E0B0E097
:100258004FD238C0E0916E02F0916F02309741F4AE
:100268000E94E7060E94D406A3E0B0E041D22AC06B
:10027800E0917002F0917102309741F40E94F1060A
:100288000E94D406A4E0B0E033D21CC0E091720210
:10029800F0917302309741F40E94FB060E94D40645
:1002A800A5E0B0E025D20EC00E940507F501EC19C3
:1002B800FD09E0938802F0938902A0918802B09129
:1002C800890244D2E0E00E940C0729C1E230A0E094
:1002D800FA0761F50E94BA0641F10E94C006E09152
:1002E8006002F09161023196E0936002F09361023E
:1002F800E0917402F0917502309761F40E94110741
:100308000E9405070E9421070E942607E0E00E943C
:100318000C070BC02297A0916202B0916302E09192
:100328006002F09161020E942C07F9C0E330A0E05E
:10033800FA0761F50E94BA0641F10E94C006E091F1
:100348006402F09165023196E0936402F0936502CD
:10035800E0917602F0917702309761F40E943607B7
:100368000E9405070E9446070E944B07E0E00E9492
:100378000C070BC02297A0916602B0916702E0912A
:100388006402F09165020E942C07C9C0E930A0E020
:10039800FA07C1F40E945107CA14DB0494F40E94BE
:1003A8000507F6013196E0937A02F0937B02FA93FF
:1003B800EA93A1E0B0E09CD10E94CA06E0E00E9466
:1003C8000C07ADC0E830A0E0FA07C1F40E94570757
:1003D800CA14DB0494F40E940507F6013196E093F1
:1003E8007C02F0937D02FA93EA93A2E0B0E080D118
:1003F8000E94DD06E0E00E940C0791C0E730A0E013
:10040800FA07C1F40E945D07CA14DB0494F40E9441
:100418000507F6013196E0937E02F0937F02FA9386
:10042800EA93A3E0B0E064D10E94E706E0E00E940E
:100438000C0775C0E630A0E0FA07C1F40E94630714
:10044800CA14DB0494F40E940507F6013196E09380
:100458008002F0938102FA93EA93A4E0B0E048D1D5
:100468000E94F106E0E00E940C0759C0E530A0E0C8
:10047800FA07C1F40E946907CA14DB0494F40E94C5
:100488000507F6013196E0938202F0938302FA930E
:10049800EA93A5E0B0E02CD10E94FB06E0E00E94C0
:1004A8000C073DC0E430A0E0FA07E1F40E946F07B2
:1004B8000E942107A0916002B0916102EA17FB0730
:1004C80084F40E9405070E9421073196E093840274
:1004D800F09385020E9426070E941107E0E00E941F
:1004E8000C071DC03097D9F40E9475070E94460773
:1004F800A0916402B0916502EA17FB0784F40E9498
:1005080005070E9446073196E0938602F09387021A
:100518000E944B070E943607E0E00E940C0711C0BA
:100528000E947B070E9457070E945D070E9463078D
:100538000E9469070E946F070E947507E0E00E9409
:100548000C071991E991EFBFF991E991B991A99136
:100558009991899179916991F990199009901895D3
:10056800EFEFE7BBE0E0E8BBE0EFE4BBEFE0E5BBC3
:10057800EBB7E064EBBFE2E0E5BFE0E0E4BFE0E456
:10058800EABFE0E0EFBDE4E0EEBDE5E8EDBDEEEE8C
:10059800ECBDE0E0E7BDE6BDEBBDEABDE9BDE8BD09
:1005A80078940E947B070E9457070E945D070E946B
:1005B80063070E9469070E946F070E947507E0E0C1
:1005C8000E940C07E0E0E093A702E093A802A0E1F4
:1005D8000E948B0644245524E1E0F0E0E815F90573
:1005E80029F0ECE0F0E0E815F90539F4E3EBF2E086
:1005F800FA93EA93EAE6F0E006C0E3EBF2E0FA9356
:10060800EA93E0E8F0E0FA93EA93F4010E94950790
:10061800F3010E949507F2010E9495078CE00E9461
:100628008F0560960E949A07A3EBB2E00E949F078D
:10063800E8EEF3E0FA93EA93E8E0F0E0FA93EA935D
:10064800E6E0F0E0FA93EA93A4E0B0E004D00E9478
:100658003B06C2CFFFCFBA93AA930E944808AC8149
:10066800BD81EC911E2FAE81BF81EC910E2FA88524
:10067800B985EC913E2FAA85BB85E8EEF3E00E9490
:100688001808EA87FB87EA851E0F1C3340F00F5FC6
:10069800A12FBB27ECE3F0E00E941D081E2F0C33AE
:1006A80040F03F5FA02FBB27ECE3F0E00E941D085D
:1006B8000E2F3D3038F0A32FBB27ECE0F0E00E946E
:1006C8001D083E2FE12FAC81BD81F0E0ED93FC9336
:1006D800E02FAE81BF81F0E0ED93FC93E32FA88576
:1006E800B985F0E0ED93FC930E944F082C9608958D
:1006F800BA93AA930E943B06E091B302EA81FB8178
:10070800FA93EA93A9EAB2E00E94DC050E949A07EC
:10071800A9EAB2E00E946906E5E00E94A507A6E9F9
:10072800B0E00E947806E881F981FA93EA93AAE892
:10073800B2E00E94DC05EFE00E94A507AAE8B2E05B
:100748000E949F070E943B0624960895BA93AA9395
:100758000E943B06E091A502E881F981FA93EA93A9
:10076800A4E9B2E00E94DC050E949A07A9EAB2E077
:100778000E946906E4E00E94A507A5EAB0E00E948D
:100788007806A4EFB1E00E94EE070E943B060C94A5
:1007980039061A930A931FEFEFEFE5BBAC980E9456
:1007A800A90781F00E94AE0711F411E00BC0E530F3
:1007B800A0E0FA0711F412E005C0E330A0E0FA0760
:1007C80009F413E0AC9AAD980E94A90781F00E9441
:1007D800AE0711F414E00BC0E530A0E0FA0711F4FD
:1007E80015E005C0E330A0E0FA0709F416E0AD9A79
:1007F800AE980E94A90781F00E94AE0711F417E095
:100808000BC0E530A0E0FA0711F418E005C0E330AA
:10081800A0E0FA0709F419E0AE9AAF98999B10E0A6
:10082800AF9AEFE0E5BBE12F099119910895BA93CA
:10083800AA931A930A93AA81BB8112960E94390837
:10084800309759F1AA81BB8114960E9439088F010B
:10085800309761F00230E0E01E0798F0F801319718
:100868008F01AA81BB811496ED93FC93AA81BB8169
:100878001296ED91FD913196FE93EE933197AC81EE
:10088800A083AA81BB810E943908FF232AF0ED9139
:10089800FD913196FE93EE9306C0AA81BB81EFEFDE
:1008A800FFEFED93FC931981088125960895BA937B
:1008B800AA9326970E94460810E0AC85BD85E0E023
:1008C800F0E0ED93FC93EA89FB893196EA8BFB8B88
:1008D8003197E4912E2FE03009F415C1E12FE03073
:1008E80039F4253211F411E002C00E94B4070AC19C
:1008F800E130A9F4253219F40E94B40702C112E0CC
:1009080040E000E02D3211F401E0FCC02B3211F47C
:100918004BE2F8C0203211F440E2F4C002C0E230E9
:1009280039F450E013E0203311F40068EBC003C041
:10093800E33009F0E7C0203310F02A3308F007C08D
:10094800AAE05A9F502DE22FE0535E0FDBC0E22F42
:10095800E33649F40E94BB07E889F989A481AA9380
:100968000E94C107CEC0E33741F40E94BB070E9432
:10097800C7070E94C3051E2F0AC0E03761F40E9412
:10098800BB070E94C7070E94CF051E2F08600260A0
:100998000F7730E034C0E43611F0E93611F4046022
:1009A80002C0E53731F4E4E5F0E0EE83FF8315E0BB
:1009B8000CC0E83511F4086003C0E83709F0A1C09D
:1009C800EEE5F0E0EE83FF8314E002FF14C00E941E
:1009D800BB070E94D107AB85AA233AF4EA85FB85B9
:1009E8000E94FC07EA87FB874DE2403011F01F5F49
:1009F80001C00B7F04C00E94BB070E94D10700FD05
:100A080011C0151778F407FF08C002FF04C00B7F58
:100A1800242F115001C020E301C020E20E94B40736
:100A28005150EFCF312F01FF17C03030A1F003FF35
:100A380006C0EE81FF812591EE83FF8305C0AE815C
:100A4800BF812D91AE83BF830E94B407503009F057
:100A580051503150EACF4BC020E3EE81FF810E9414
:100A68003D08E887F987EE81FF813296EE83FF83A0
:100A7800E885F985AA85BB85AE17BF0750F02F5FBB
:100A8800A885B985EA85FB85EA1BFB0BEA87FB8706
:100A9800EFCF2A3328F003FF02C0295F01C0295D88
:100AA80004FD1AC0213320F4A885B985119709F4EB
:100AB80009C0531710F000FF01C013C020E207FF60
:100AC8000BC020E3006102FF07C00B7F4A930E941E
:100AD800C107503009F051500E94B407503009F056
:100AE80051503150A885B985129708F0B5CF00FF4D
:100AF80008C0503031F05150E0E2EA930E94C1073B
:100B0800F8CF10E0E0CEAC85BD850E9439080E9480
:100B18004D0864960895FF92F82E26970E9448087B
:100B28000E94D907309719F4EFEFFFEF23C0DE01D9
:100B380016960E94F8078D010E94D907EE83FF835D
:100B4800E0E0E887E987DE011A960E94F8070E942C
:100B58003908FA93EA931A930A93EBE1F4E0FA93CB
:100B6800EA93DE011A96A3DE9F01AE81BF81E0E021
:100B7800EC93F9010E944F082A96FF900895BA93C2
:100B8800AA93A991B991EE27FF276D91662311F0D9
:100B98003196FBCF0895BA93AA93AA27BB27E99168
:100BA800F9910590002011F01196FBCFFD010895F1
:100BB800BA93AA93A991B991E991F99130962AF437
:100BC800E095F09531966DE26D93E89480E197E2B7
:100BD8000DD088EE93E00AD084E6992707D08AE002
:100BE80005D06E2F10D066276C9308956627E817F6
:100BF800F90720F06395E81BF90BC9F7662311F490
:100C080016F008956894605D6D930895AA93E8B30B
:100C1800EF70AE2FE881E07FEA2BE8BB8DE08A9584
:100C2800F1F7C29A8DE08A95F1F7C2988DE08A951E
:100C3800F1F79AC0AA93A881E9DFE881E295E883F1
:100C4800A881E4DF85E88A95F1F78EC0AA93E88148
:100C5800F0E0E853FD4FE081A981AE0FEBDFE981B9
:100C6800E093CC02E881E093CD0222960895A2E0B9
:100C78000E94E007ACE0DEDFA1E00E94E007E0E0D0
:100C8800E093CD02E093CC020895AA93A881AA30FC
:100C980031F0E091CE02A091CC02AE1760F0E0E016
:100CA800EA93A091CD02AF5FA093CD02CFDFA881D8
:100CB800AA3009F459C0E091CC02EF5FE093CC026E
:100CC800C09AA881B7DFC0984FC0BA93AA931A9365
:100CD800A981BA81ED91A983BA831E2FE03019F05A
:100CE800A12FD3DFF5CF10C0BA93AA931A93E98145
:100CF800FA813196E983FA833197E4911E2FE03027
:100D080019F0A12FC2DFF3CF188123960895AA9373
:100D1800E7B3E06FE7BBBA9AB89AB99AC298C09895
:100D2800C198E881E093CE02E058E093CA02E881D6
:100D3800E054E093CB02A4E1B0E00E94EE070E94E9
:100D4800E6070E94E6070E94E607A0E25FDF88EC5C
:100D580090E00197F1F7A8E26DDFA4E06BDFA5E86A
:100D680069DFA6E067DF83DF21960895E091A70297
:100D7800F091A80230970895E0916802F091690215
:100D88003196E0936802F09369020895E1E0F0E09B
:100D9800E0936A02F0936B02F60131966F010895B1
:100DA800E1E0F0E0E0937802F0937902DA92CA92F7
:100DB8000895E1E0F0E0E0936C02F0936D02F60133
:100DC80031966F010895E1E0F0E0E0936E02F09350
:100DD8006F02F60131966F010895E1E0F0E0E093CB
:100DE8007002F0937102F60131966F010895E1E007
:100DF800F0E0E0937202F0937302F60131966F010E
:100E08000895E1E0F0E0E0937802F0937902089524
:100E1800E0937802E09379020895E1E0F0E0E0934E
:100E28007402F0937502E0916202F09163023196C8
:100E3800E0936202F09363020895E0916202F091F8
:100E480063020895FA93EA93A6E0B0E00C947C0359
:100E5800EA1BFB0BE883F983A881B9810E94AA03E6
:100E680022960895E1E0F0E0E0937602F0937702AD
:100E7800E0916602F09167023196E0936602F09382
:100E880067020895E0916602F09167020895FA9367
:100E9800EA93A7E0B0E00C947C03E0E0E0936A02F8
:100EA800E0936B020895E0E0E0936C02E0936D023A
:100EB8000895E0E0E0936E02E0936F020895E0E0A9
:100EC800E0937002E09371020895E0E0E09372020B
:100ED800E09373020895E0E0E0937402E0937502F2
:100EE8000895E0E0E0937602E09377020895AA245B
:100EF800BB24CC24DD24E0E0E0936002E0936102AF
:100F0800E0936202E0936302E0936402E093650277
:100F1800E0936602E0936702E0936802E093690257
:100F2800BCCF0E9400080E9441080895E0E0EA93BF
:100F3800A0E00C942A060E946906A8EEB3E00C947F
:100F4800EE07EA93A0E00C942A06E3B3E7700E2FAD
:100F580007300895E02FF0E0E630A0E0FA070895A2
:100F68002A93AD85BE85EF85F88909950895E889A6
:100F7800F9893497E88BF98B0895AD85BE85EF859F
:100F8800F88909950895A889B98914960E9439089D
:100F9800EE83FF83AE81BF810895A889B98914962D
:100FA8000E943908EA87FB870895DE011C960E9493
:100FB800F8070E94390808950E941E06A3E0B0E0D1
:100FC8000C94EE07A0E30E940A0688EC90E00197D3
:100FD800F1F70895109639F080ED97E00197F1F751
:100FE800A8951197C9F708950024AF0DB01D08956D
:100FF800F195E195F04008956F2F660F660B762FF7
:1010080008950024112490E1AA0FBB1F001C111C95
:101018000E1A1F0A18F40E0E1F1E01C0A1609A9521
:1010280099F7FD01D001089512D0EBDF0EF4E0DF4F
:101038000895E894B7FF04C0A095B09511966894F8
:10104800F7FDD6DFDEDFFD010EF4D2DF0895E89468
:10105800F7FF02C0CDDF6894B7FF06C0A095B09532
:10106800119600F8039400FA0895ED91FC911197F8
:1010780008950590F491E02D08957A936A93FA9370
:10108800EA9308955A934A933A932A931A930A93A0
:1010980008955D814C813B812A81198108810895D9
:00000001FF
