:0E0000000C9486000C94DF000C9400000C940D
:10000E0000000C9400000C9400000C9400000C9462
:10001E0000000C9400000C94B3000C9400000C949F
:10002E0000000C9400000C9400000C9400000C9442
:10003E0000000C9400000C9400000C9400000C9432
:10004E0000000C9400001027E80364000A00010071
:10005E0000100001100001001E00070020202025C6
:10006E003032643A253032643A25303264202050E2
:10007E004D00202020253032643A253032643A2556
:10008E003032642020414D00202020436C69656E83
:10009E007420232530336420202000476F20546FB6
:1000AE0020436F756E7465722325303264210020F3
:1000BE0025336420436C69656E74287329200020F3
:1000CE0020204265666F726520596F7520202000D2
:1000DE0001002D4E414E00494E46000080C00400E6
:1000EE0006006600010060027F00010061027F00D1
:1000FE000100A102DE000200A502EA000000F89451
:10010E00EE27ECBBF1E0FBBFEBBFE5BF8DE0A2E05D
:10011E00BB27ED938A95E9F780E098E0A0E6ED9392
:10012E000197E9F7ECEEF0E085919591009761F07B
:10013E00A591B59105901590BF01F00105900D9216
:10014E000197E1F7FB01F0CFEFE5EDBFE8E0EEBF81
:10015E00C0E6D2E00C94C802EA93FA93EFB7EA93A2
:10016E00E5E8EDBDEEEEECBDEBE3F0E0E415F505F4
:10017E00B9F444245524E615F70571F46624772462
:10018E00E7E1F0E0E815F90519F48824992403C095
:10019E00F40131964F0103C0F30131963F0103C0C4
:1001AE00F20131962F01E991EFBFF991E99118957E
:1001BE000A921A92FA926A937A938A939A93AA93CC
:1001CE00BA93EA93FA93EFB7EA931A93DFD21E2FFC
:1001DE00EBB7E064EBBFE0918C02F0918D023097AB
:1001EE0009F0AFC11F3F09F4ABC1EDE0F0E08E1690
:1001FE009F064CF0E815F90529F4EEE1F0E0E6155E
:10020E00F7050CF407C0E1E0F0E0E0938E02F09306
:10021E008F0205C0E0E0E0938E02E0938F02E12FA3
:10022E00F0E0E130A0E0FA0709F061C00E94790623
:10023E0009F45CC00E947F06F50131965F01E091E2
:10024E006C02F0916D02309741F40E9489060E9473
:10025E009306A1E0B0E054D246C0E0916E02F09158
:10026E006F02309741F40E949C060E949306A2E012
:10027E00B0E046D238C0E0917002F0917102309732
:10028E0041F40E94A6060E949306A3E0B0E038D285
:10029E002AC0E0917202F0917302309741F40E94ED
:1002AE00B0060E949306A4E0B0E02AD21CC0E091F2
:1002BE007402F0917502309741F40E94BA060E94C2
:1002CE009306A5E0B0E01CD20EC00E94C406F50154
:1002DE00EC19FD09E0938A02F0938B02A0918A0239
:1002EE00B0918B0232D2E0E00E94CB0629C1E230FF
:1002FE00A0E0FA0761F50E94790641F10E947F069F
:10030E00E0916202F09163023196E0936202F09303
:10031E006302E0917602F0917702309761F40E94C9
:10032E00D0060E94C4060E94E0060E94E506E0E0A8
:10033E000E94CB060BC02297A0916402B091650279
:10034E00E0916202F09163020E94EB06F9C0E33085
:10035E00A0E0FA0761F50E94790641F10E947F063E
:10036E00E0916602F09167023196E0936602F09397
:10037E006702E0917802F0917902309761F40E9461
:10038E00F5060E94C4060E9405070E940A07E0E0D7
:10039E000E94CB060BC02297A0916802B091690211
:1003AE00E0916602F09167020E94EB06C9C0E93047
:1003BE00A0E0FA07C1F40E941007CA14DB0494F4FB
:1003CE000E94C406F6013196E0937C02F0937D0202
:1003DE00FA93EA93A1E0B0E093D10E948906E0E09F
:1003EE000E94CB06ADC0E830A0E0FA07C1F40E942F
:1003FE001607CA14DB0494F40E94C406F601319663
:10040E00E0937E02F0937F02FA93EA93A2E0B0E0CB
:10041E0077D10E949C06E0E00E94CB0691C0E730A7
:10042E00A0E0FA07C1F40E941C07CA14DB0494F47E
:10043E000E94C406F6013196E0938002F093810289
:10044E00FA93EA93A3E0B0E05BD10E94A606E0E047
:10045E000E94CB0675C0E630A0E0FA07C1F40E94F8
:10046E002207CA14DB0494F40E94C406F6013196E6
:10047E00E0938202F0938302FA93EA93A4E0B0E051
:10048E003FD10E94B006E0E00E94CB0659C0E53095
:10049E00A0E0FA07C1F40E942807CA14DB0494F402
:1004AE000E94C406F6013196E0938402F093850211
:1004BE00FA93EA93A5E0B0E023D10E94BA06E0E0F9
:1004CE000E94CB063DC0E430A0E0FA07E1F40E94A2
:1004DE002E070E94E006A0916202B0916302EA1715
:1004EE00FB0784F40E94C4060E94E0063196E09356
:1004FE008602F09387020E94E5060E94D006E0E095
:10050E000E94CB061DC03097D9F40E9434070E947A
:10051E000507A0916602B0916702EA17FB0784F403
:10052E000E94C4060E9405073196E0938802F0935C
:10053E0089020E940A070E94F506E0E00E94CB069F
:10054E0011C00E943A070E9416070E941C070E94C3
:10055E0022070E9428070E942E070E943407E0E01F
:10056E000E94CB061991E991EFBFF991E991B991EA
:10057E00A9919991899179916991F9901990099020
:10058E001895EFEFE7BBE0E0E8BBE0EFE4BBEFE090
:10059E00E5BBEBB7E064EBBFE2E0E5BFE0E0E4BF54
:1005AE00E0E4EABFE0E0EFBDE4E0EEBDE5E8EDBD7E
:1005BE00EEEEECBDE0E0E7BDE6BDEBBDEABDE9BDAC
:1005CE00E8BD78940E943A070E9416070E941C0705
:1005DE000E9422070E9428070E942E070E943407BD
:1005EE00E0E00E94CB06E0E0E0938E02E0938F0203
:1005FE00A0E10E944A0644245524E1E0F0E0E8150B
:10060E00F90529F0ECE0F0E0E815F90539F4E0E938
:10061E00F2E0FA93EA93EAE6F0E006C0E0E9F2E0EF
:10062E00FA93EA93E0E8F0E0FA93EA93F4010E9479
:10063E005407F3010E945407F2010E9454078CE004
:10064E000E948D0560960E945907A0E9B2E00E94B3
:10065E003906A8EEB3E00E94D107E8EEF3E00E945F
:10066E005E07CBCFFFCFBA93AA930E942B08AC8123
:10067E00BD81EC911E2FAE81BF81EC910E2FA8850E
:10068E00B985EC913E2FAA85BB85E8EEF3E00E947A
:10069E00FB07EA87FB87EA851E0F1C3340F00F5FCE
:1006AE00A12FBB27ECE3F0E00E9400081E2F0C33B5
:1006BE0040F03F5FA02FBB27ECE3F0E00E94000864
:1006CE000E2F3D3038F0A32FBB27ECE0F0E00E9458
:1006DE0000083E2FE12FAC81BD81F0E0ED93FC933D
:1006EE00E02FAE81BF81F0E0ED93FC93E32FA88560
:1006FE00B985F0E0ED93FC930E9432082C96089594
:10070E000E946E0700E612E00E940B061A930A93EF
:10071E00E6E9F0E0FA93EA93E885F9850E9454073A
:10072E000E9473070E945907D8010E9439061A9336
:10073E000A93E9EAF0E00E9478070E9473070E948C
:10074E007D0719810881269608950E946E0701E69D
:10075E0012E00E940B061A930A93EDEBF0E00E9452
:10076E0078070E9473070E945907D8010E94390624
:10077E001A930A93EDECF0E00E9478070E9473073B
:10078E000E947D0719810881249608951A930A9371
:10079E001FEFEFEFE5BBAC980E948C0781F00E9433
:1007AE00910711F411E00BC0E530A0E0FA0711F447
:1007BE0012E005C0E330A0E0FA0709F413E0AC9AAA
:1007CE00AD980E948C0781F00E94910711F414E0FD
:1007DE000BC0E530A0E0FA0711F415E005C0E330D8
:1007EE00A0E0FA0709F416E0AD9AAE980E948C07C5
:1007FE0081F00E94910711F417E00BC0E530A0E0E4
:10080E00FA0711F418E005C0E330A0E0FA0709F486
:10081E0019E0AE9AAF98999B10E0AF9AEFE0E5BB66
:10082E00E12F0991199108950E946E07AA81BB814B
:10083E0012960E941C08309759F1AA81BB8114961A
:10084E000E941C088F01309761F00230E0E01E0715
:10085E0098F0F80131978F01AA81BB811496ED9320
:10086E00FC93AA81BB811296ED91FD913196FE9378
:10087E00EE933197AC81A083AA81BB810E941C08A4
:10088E00FF232AF0ED91FD913196FE93EE9306C073
:10089E00AA81BB81EFEFFFEFED93FC9319810881E5
:1008AE0025960895BA93AA9326970E94290810E0D8
:1008BE00AC85BD85E0E0F0E0ED93FC93EA89FB8921
:1008CE003196EA8BFB8B3197E4912E2FE03009F4B1
:1008DE0015C1E12FE03039F4253211F411E002C0D8
:1008EE000E9497070AC1E130A9F4253219F40E943B
:1008FE00970702C112E040E000E02D3211F401E052
:10090E00FCC02B3211F44BE2F8C0203211F440E25D
:10091E00F4C002C0E23039F450E013E0203311F499
:10092E000068EBC003C0E33009F0E7C0203310F0DD
:10093E002A3308F007C0AAE05A9F502DE22FE05349
:10094E005E0FDBC0E22FE33649F40E949E07E88972
:10095E00F989A481AA930E94A407CEC0E33741F47B
:10096E000E949E070E94AA070E94C1051E2F0AC060
:10097E00E03761F40E949E070E94AA070E94CD05EF
:10098E001E2F086002600F7730E034C0E43611F09D
:10099E00E93611F4046002C0E53731F4E4E5F0E025
:1009AE00EE83FF8315E00CC0E83511F4086003C038
:1009BE00E83709F0A1C0EEE5F0E0EE83FF8314E026
:1009CE0002FF14C00E949E070E94B407AB85AA23A3
:1009DE003AF4EA85FB850E94DF07EA87FB874DE242
:1009EE00403011F01F5F01C00B7F04C00E949E07B4
:1009FE000E94B40700FD11C0151778F407FF08C058
:100A0E0002FF04C00B7F242F115001C020E301C050
:100A1E0020E20E9497075150EFCF312F01FF17C0F0
:100A2E003030A1F003FF06C0EE81FF812591EE83E9
:100A3E00FF8305C0AE81BF812D91AE83BF830E941F
:100A4E009707503009F051503150EACF4BC020E398
:100A5E00EE81FF810E942008E887F987EE81FF81F1
:100A6E003296EE83FF83E885F985AA85BB85AE179E
:100A7E00BF0750F02F5FA885B985EA85FB85EA1B75
:100A8E00FB0BEA87FB87EFCF2A3328F003FF02C068
:100A9E00295F01C0295D04FD1AC0213320F4A88509
:100AAE00B985119709F409C0531710F000FF01C062
:100ABE0013C020E207FF0BC020E3006102FF07C056
:100ACE000B7F4A930E94A407503009F051500E94A8
:100ADE009707503009F051503150A885B9851297BB
:100AEE0008F0B5CF00FF08C0503031F05150E0E2B1
:100AFE00EA930E94A407F8CF10E0E0CEAC85BD8546
:100B0E000E941C080E94300864960895FF92F82EE9
:100B1E0026970E942B080E94BC07309719F4EFEF1E
:100B2E00FFEF23C0DE0116960E94DB078D010E94A7
:100B3E00BC07EE83FF83E0E0E887E987DE011A96C3
:100B4E000E94DB070E941C08FA93EA931A930A93F9
:100B5E00EBE1F4E0FA93EA93DE011A96A3DE9F012D
:100B6E00AE81BF81E0E0EC93F9010E9432082A9633
:100B7E00FF900895BA93AA93A991B991EE27FF27F2
:100B8E006D91662311F03196FBCF0895BA93AA9317
:100B9E00AA27BB27E991F9910590002011F0119633
:100BAE00FBCFFD010895AA93E8B3EF70AE2FE88155
:100BBE00E07FEA2BE8BB8DE08A95F1F7C29A8DE0D3
:100BCE008A95F1F7C2988DE08A95F1F789C0AA93BC
:100BDE00A881E9DFE881E295E883A881E4DF85E872
:100BEE008A95F1F77DC0AA93E881F0E0EB55FD4FB1
:100BFE00E081A981AE0FEBDFE981E093A902E881E4
:100C0E00E093AA0222960895A2E00E94C307ACE0E8
:100C1E00DEDFA1E00E94C307E0E0E093AA02E093CA
:100C2E00A9020895AA93A881AA3031F0E091AB02EF
:100C3E00A091A902AE1760F0E0E0EA93A091AA029B
:100C4E00AF5FA093AA02CFDFA881AA3009F448C0F3
:100C5E00E091A902EF5FE093A902C09AA881B7DFE5
:100C6E00C0983EC0BA93AA931A93A981BA81ED9106
:100C7E00A983BA831E2FE03019F0A12FD3DFF5CF51
:100C8E00188123960895AA93E7B3E06FE7BBBA9A4B
:100C9E00B89AB99AC298C098C198E881E093AB020D
:100CAE00E058E093A702E881E054E093A802A4E1A3
:100CBE00B0E00E94D1070E94C9070E94C9070E9496
:100CCE00C907A0E270DF88EC90E00197F1F7A8E287
:100CDE007EDFA4E07CDFA5E87ADFA6E078DF94DF94
:100CEE0021960895E0918E02F0918F02309708952B
:100CFE00E0916A02F0916B023196E0936A02F093F2
:100D0E006B020895E1E0F0E0E0936C02F0936D0267
:100D1E00F60131966F010895E1E0F0E0E0937A027A
:100D2E00F0937B02DA92CA920895E1E0F0E0E0934C
:100D3E006E02F0936F02F60131966F010895E1E0B5
:100D4E00F0E0E0937002F0937102F60131966F01BC
:100D5E000895E1E0F0E0E0937202F0937302F60181
:100D6E0031966F010895E1E0F0E0E0937402F093A4
:100D7E007502F60131966F010895E1E0F0E0E0931F
:100D8E007A02F0937B020895E0937A02E0937B025D
:100D9E000895E1E0F0E0E0937602F0937702E091BF
:100DAE006402F09165023196E0936402F09365025D
:100DBE000895E0916402F09165020895FA93EA9322
:100DCE00A6E0B0E00C948703EA1BFB0BE883F983E3
:100DDE00A881B9810E94AC0322960895E1E0F0E06B
:100DEE00E0937802F0937902E0916802F091690243
:100DFE003196E0936802F09369020895E0916802DB
:100E0E00F09169020895FA93EA93A7E0B0E00C948A
:100E1E008703E0E0E0936C02E0936D020895E0E05A
:100E2E00E0936E02E0936F020895E0E0E0937002AB
:100E3E00E09371020895E0E0E0937202E093730292
:100E4E000895E0E0E0937402E09375020895E0E007
:100E5E00E0937602E09377020895E0E0E093780263
:100E6E00E09379020895AA24BB24CC24DD24E0E08B
:100E7E00E0936202E0936302E0936402E093650202
:100E8E00E0936602E0936702E0936802E0936902E2
:100E9E00E0936A02E0936B02BCCF0E94E3070E94CC
:100EAE0024080895E0E0EA93A0E00C94FA05FA9382
:100EBE00EA93E8E0F0E0FA93EA93E6E0F0E0FA93E2
:100ECE00EA93A4E0B0E00E943A030C940B06BA93A6
:100EDE00AA931A930A93089584E00E948D0528968A
:100EEE000895FA93EA93EE81FF81D7CFE0E0EA937B
:100EFE00A1E00E94FA05D8010E943906A8EBBBE0DA
:100F0E000E94D107E8EBFBE0D2CFE3B3E7700E2FE0
:100F1E0007300895E02FF0E0E630A0E0FA070895DC
:100F2E002A93AD85BE85EF85F88909950895E889E0
:100F3E00F9893497E88BF98B0895AD85BE85EF85D9
:100F4E00F88909950895A889B98914960E941C08F4
:100F5E00EE83FF83AE81BF810895A889B989149667
:100F6E000E941C08EA87FB870895DE011C960E94EA
:100F7E00DB070E941C0808950E94EE05A3E0B0E076
:100F8E000C94D107A0E30E94DA0588EC90E001975B
:100F9E00F1F70895109639F080ED97E00197F1F78B
:100FAE00A8951197C9F708950024AF0DB01D0895A7
:100FBE00F195E195F04008956F2F660F660B762F31
:100FCE0008950024112490E1AA0FBB1F001C111CD0
:100FDE000E1A1F0A18F40E0E1F1E01C0A1609A955C
:100FEE0099F7FD01D001089512D0EBDF0EF4E0DF8A
:100FFE000895E894B7FF04C0A095B0951196689433
:10100E00F7FDD6DFDEDFFD010EF4D2DF0895E894A2
:10101E00F7FF02C0CDDF6894B7FF06C0A095B0956C
:10102E00119600F8039400FA0895ED91FC91119732
:10103E0008950590F491E02D08957A936A93FA93AA
:10104E00EA9308955A934A933A932A931A930A93DA
:10105E0008955D814C813B812A8119810881089513
:00000001FF
