:060000000C9464000C9456
:10000600BD000C9400000C9400000C9400000C94AD
:1000160000000C9400000C9400000C9400000C945A
:1000260091000C9400000C9400000C9400000C94B9
:1000360000000C9400000C9400000C9400000C943A
:1000460000000C9400000C9400000C940000102793
:10005600E80364000A00010000100001100001001E
:100066001E000700436C6F636B3A2025643A2564D3
:100076003A256400676F20746F206261646A6520A8
:100086003A2000206E61666172206A6F6C6F796536
:100096002073686F6D612068617374616E6400001F
:1000A60001002D4E414E00494E46000080C004001E
:1000B600060066000100C402A6000200C802B200E3
:1000C6000000F894EE27ECBBF1E0FBBFEBBFE5BF09
:1000D6008DE0A2E0BB27ED938A95E9F780E098E0F2
:1000E600A0E6ED930197E9F7E4EBF0E085919591B1
:1000F600009761F0A591B59105901590BF01F001AB
:1001060005900D920197E1F7FB01F0CFEFE5EDBF0A
:10011600E8E0EEBFC0E6D2E00C94A602EA93FA93BA
:10012600EFB7EA93E5E8EDBDEEEEECBDEBE3F0E00C
:10013600E415F505B9F444245524E615F70571F4DC
:1001460066247724E7E1F0E0E815F90519F4882438
:10015600992403C0F40131964F0103C0F30131968F
:100166003F0103C0F20131962F01E991EFBFF991EA
:10017600E99118950A921A92FA926A937A938A9357
:100186009A93AA93BA93EA93FA93EFB7EA931A93D8
:1001960082D21E2FEBB7E064EBBFE091A502F0918F
:1001A600A602309709F0AFC11F3F09F4ABC1EDE0DD
:1001B600F0E08E169F064CF0E815F90529F4EEE1FD
:1001C600F0E0E615F7050CF407C0E1E0F0E0E09397
:1001D600A702F093A80205C0E0E0E093A702E0932F
:1001E600A802E12FF0E0E130A0E0FA0709F061C0D3
:1001F6000E943B0609F45CC00E944106F501319657
:100206005F01E0916A02F0916B02309741F40E941F
:100216004B060E945506A1E0B0E0EED146C0E09143
:100226006C02F0916D02309741F40E945E060E94C6
:100236005506A2E0B0E0E0D138C0E0916E02F09140
:100246006F02309741F40E9468060E945506A3E0AB
:10025600B0E0D2D12AC0E0917002F09171023097DD
:1002660041F40E9472060E945506A4E0B0E0C4D193
:100276001CC0E0917202F0917302309741F40E9423
:100286007C060E945506A5E0B0E0B6D10EC00E94DD
:100296008606F501EC19FD09E0938802F0938902C0
:1002A600A0918802B0918902D3D1E0E00E948D0628
:1002B60029C1E230A0E0FA0761F50E943B0641F150
:1002C6000E944106E0916002F09161023196E0934E
:1002D6006002F0936102E0917402F091750230972A
:1002E60061F40E9492060E9486060E94A2060E945F
:1002F600A706E0E00E948D060BC02297A09162023D
:10030600B0916302E0916002F09161020E94AD0635
:10031600F9C0E330A0E0FA0761F50E943B0641F11F
:100326000E944106E0916402F09165023196E093E5
:100336006402F0936502E0917602F09177023097BD
:1003460061F40E94B7060E9486060E94C7060E94B4
:10035600CC06E0E00E948D060BC02297A0916602B3
:10036600B0916702E0916402F09165020E94AD06C9
:10037600C9C0E930A0E0FA07C1F40E94D206CA1447
:10038600DB0494F40E948606F6013196E0937A0225
:10039600F0937B02FA93EA93A1E0B0E02DD10E949C
:1003A6004B06E0E00E948D06ADC0E830A0E0FA07FB
:1003B600C1F40E94D806CA14DB0494F40E9486068F
:1003C600F6013196E0937C02F0937D02FA93EA936C
:1003D600A2E0B0E011D10E945E06E0E00E948D0628
:1003E60091C0E730A0E0FA07C1F40E94DE06CA1405
:1003F600DB0494F40E948606F6013196E0937E02B1
:10040600F0937F02FA93EA93A3E0B0E0F5D00E945E
:100416006806E0E00E948D0675C0E630A0E0FA07A7
:10042600C1F40E94E406CA14DB0494F40E94860612
:10043600F6013196E0938002F0938102FA93EA93F3
:10044600A4E0B0E0D9D00E947206E0E00E948D06DA
:1004560059C0E530A0E0FA07C1F40E94EA06CA14C2
:10046600DB0494F40E948606F6013196E09382023C
:10047600F0938302FA93EA93A5E0B0E0BDD00E9420
:100486007C06E0E00E948D063DC0E430A0E0FA075D
:10049600E1F40E94F0060E94A206A0916002B091CB
:1004A6006102EA17FB0784F40E9486060E94A206F0
:1004B6003196E0938402F09385020E94A7060E947B
:1004C6009206E0E00E948D061DC03097D9F40E9486
:1004D600F6060E94C706A0916402B0916502EA176B
:1004E600FB0784F40E9486060E94C7063196E093B5
:1004F6008602F09387020E94CC060E94B706E0E0CF
:100506000E948D0611C00E94FC060E94D8060E9419
:10051600DE060E94E4060E94EA060E94F0060E9499
:10052600F606E0E00E948D061991E991EFBFF99178
:10053600E991B991A9919991899179916991F990E6
:10054600199009901895EFEFE7BBE0E0E8BBE0EF04
:10055600E4BBEFE0E5BBEBB7E064EBBFE2E0E5BF91
:10056600E0E0E4BFE0E4EABFE0E0EFBDE4E0EEBDDA
:10057600E5E8EDBDEEEEECBDE0E0E7BDE6BDEBBDCA
:10058600EABDE9BDE8BD78940E94FC060E94D80643
:100596000E94DE060E94E4060E94EA060E94F00619
:1005A6000E94F606E0E00E948D06E0E0E093A702D6
:1005B600E093A802A0E10E940C0644245524E3EB34
:1005C600F2E0FA93EA93EAE6F0E0FA93EA93F401AA
:1005D6000E941607F3010E941607F2010E941607F1
:1005E6008CE00E94100560960E941B07A3EBB2E008
:1005F6000E942007E4CFFFCFBA93AA930E94BC05BE
:10060600E091B302EA81FB81FA93EA93A9EAB2E0A8
:100616000E945D050E941B07A9EAB2E00E94EA0556
:10062600E5E00E942807AAE7B0E00E94F905E88104
:10063600F981FA93EA93AAE8B2E00E945D05EFE039
:100646000E942807AAE8B2E00E942007249608958F
:10065600BA93AA930E94BC05E091A502E881F981AC
:10066600FA93EA93A4E9B2E00E945D050E941B0793
:10067600A9EAB2E00E94EA05E4E00E942807A9E898
:10068600B0E00E94F905A4EFB1E00E9471070E9454
:10069600BC050C94BA051A930A931FEFEFEFE5BB5E
:1006A600AC980E942C0781F00E94310711F411E0EA
:1006B6000BC0E530A0E0FA0711F412E005C0E33004
:1006C600A0E0FA0709F413E0AC9AAD980E942C0753
:1006D60081F00E94310711F414E00BC0E530A0E070
:1006E600FA0711F415E005C0E330A0E0FA0709F4B3
:1006F60016E0AD9AAE980E942C0781F00E94310751
:1007060011F417E00BC0E530A0E0FA0711F418E089
:1007160005C0E330A0E0FA0709F419E0AE9AAF98F5
:10072600999B10E0AF9AEFE0E5BBE12F0991199193
:100736000895BA93AA931A930A93AA81BB81129633
:100746000E948807309759F1AA81BB8114960E94AE
:1007560088078F01309761F00230E0E01E0798F0BD
:10076600F80131978F01AA81BB811496ED93FC9312
:10077600AA81BB811296ED91FD913196FE93EE937F
:100786003197AC81A083AA81BB810E948807FF2391
:100796002AF0ED91FD913196FE93EE9306C0AA8163
:1007A600BB81EFEFFFEFED93FC931981088125964E
:1007B6000895BA93AA9326970E94950710E0AC85F0
:1007C600BD85E0E0F0E0ED93FC93EA89FB89319684
:1007D600EA8BFB8B3197E4912E2FE03009F415C19B
:1007E600E12FE03039F4253211F411E002C00E9405
:1007F60037070AC1E130A9F4253219F40E943707F8
:1008060002C112E040E000E02D3211F401E0FCC02C
:100816002B3211F44BE2F8C0203211F440E2F4C05E
:1008260002C0E23039F450E013E0203311F40068DE
:10083600EBC003C0E33009F0E7C0203310F02A33E1
:1008460008F007C0AAE05A9F502DE22FE0535E0F32
:10085600DBC0E22FE33649F40E943E07E889F989B6
:10086600A481AA930E944407CEC0E33741F40E94B4
:100876003E070E944A070E9444051E2F0AC0E03721
:1008860061F40E943E070E944A070E9450051E2FEF
:10089600086002600F7730E034C0E43611F0E936C4
:1008A60011F4046002C0E53731F4E4E5F0E0EE83CC
:1008B600FF8315E00CC0E83511F4086003C0E83783
:1008C60009F0A1C0EEE5F0E0EE83FF8314E002FF3D
:1008D60014C00E943E070E945407AB85AA233AF42F
:1008E600EA85FB850E947F07EA87FB874DE2403059
:1008F60011F01F5F01C00B7F04C00E943E070E94DB
:10090600540700FD11C0151778F407FF08C002FF51
:1009160004C00B7F242F115001C020E301C020E248
:100926000E9437075150EFCF312F01FF17C03030EB
:10093600A1F003FF06C0EE81FF812591EE83FF83C0
:1009460005C0AE81BF812D91AE83BF830E9437075C
:10095600503009F051503150EACF4BC020E3EE81C0
:10096600FF810E948C07E887F987EE81FF81329626
:10097600EE83FF83E885F985AA85BB85AE17BF0799
:1009860050F02F5FA885B985EA85FB85EA1BFB0B2E
:10099600EA87FB87EFCF2A3328F003FF02C0295FDF
:1009A60001C0295D04FD1AC0213320F4A885B9854C
:1009B600119709F409C0531710F000FF01C013C0C6
:1009C60020E207FF0BC020E3006102FF07C00B7F98
:1009D6004A930E944407503009F051500E9437074D
:1009E600503009F051503150A885B985129708F05A
:1009F600B5CF00FF08C0503031F05150E0E2EA9325
:100A06000E944407F8CF10E0E0CEAC85BD850E9479
:100A160088070E949C0764960895FF92F82E2697F1
:100A26000E9497070E945C07309719F4EFEFFFEFDB
:100A360023C0DE0116960E947B078D010E945C078B
:100A4600EE83FF83E0E0E887E987DE011A960E94DD
:100A56007B070E948807FA93EA931A930A93ECE9B4
:100A6600F3E0FA93EA93DE011A96A3DE9F01AE81C4
:100A7600BF81E0E0EC93F9010E949E072A96FF9061
:100A86000895BA93AA93A991B991EE27FF276D917C
:100A9600662311F03196FBCF0895BA93AA93AA273D
:100AA600BB27E991F9910590002011F01196FBCF33
:100AB600FD010895BA93AA93A991B991E991F99183
:100AC60030962AF4E095F09531966DE26D93E894B0
:100AD60080E197E20DD088EE93E00AD084E699276C
:100AE60007D08AE005D06E2F10D066276C93089544
:100AF6006627E817F90720F06395E81BF90BC9F795
:100B0600662311F416F008956894605D6D93089558
:100B1600AA93E8B3EF70AE2FE881E07FEA2BE8BB3B
:100B26008DE08A95F1F7C29A8DE08A95F1F7C29821
:100B36008DE08A95F1F79AC0AA93A881E9DFE8814A
:100B4600E295E883A881E4DF85E88A95F1F78EC00F
:100B5600AA93E881F0E0E853FD4FE081A981AE0F4A
:100B6600EBDFE981E093CC02E881E093CD022296A7
:100B76000895A2E00E946307ACE0DEDFA1E00E94D8
:100B86006307E0E0E093CD02E093CC020895AA93D8
:100B9600A881AA3031F0E091CE02A091CC02AE1726
:100BA60060F0E0E0EA93A091CD02AF5FA093CD02A2
:100BB600CFDFA881AA3009F459C0E091CC02EF5FDB
:100BC600E093CC02C09AA881B7DFC0984FC0BA9311
:100BD600AA931A93A981BA81ED91A983BA831E2F8C
:100BE600E03019F0A12FD3DFF5CF10C0BA93AA9346
:100BF6001A93E981FA813196E983FA833197E49170
:100C06001E2FE03019F0A12FC2DFF3CF18812396F3
:100C16000895AA93E7B3E06FE7BBBA9AB89AB99A70
:100C2600C298C098C198E881E093CE02E058E0935C
:100C3600CA02E881E054E093CB02A4E1B0E00E944E
:100C460071070E9469070E9469070E946907A0E26E
:100C56005FDF88EC90E00197F1F7A8E26DDFA4E092
:100C66006BDFA5E869DFA6E067DF83DF21960895DD
:100C7600E091A702F091A80230970895E0916802EA
:100C8600F09169023196E0936802F0936902089543
:100C9600E1E0F0E0E0936A02F0936B02F601319630
:100CA6006F010895E1E0F0E0E0937802F0937902B5
:100CB600DA92CA920895E1E0F0E0E0936C02F093D4
:100CC6006D02F60131966F010895E1E0F0E0E093E0
:100CD6006E02F0936F02F60131966F010895E1E01E
:100CE600F0E0E0937002F0937102F60131966F0125
:100CF6000895E1E0F0E0E0937202F0937302F601EA
:100D060031966F010895E1E0F0E0E0937802F09308
:100D160079020895E0937802E09379020895E1E07C
:100D2600F0E0E0937402F0937502E0916202F091B4
:100D360063023196E0936202F09363020895E091B4
:100D46006202F09163020895FA93EA93A6E0B0E096
:100D56000C94FF02EA1BFB0BE883F983A881B98197
:100D66000E942B0322960895E1E0F0E0E0937602DC
:100D7600F0937702E0916602F09167023196E09374
:100D86006602F09367020895E0916602F0916702A9
:100D96000895FA93EA93A7E0B0E00C94FF02E0E02E
:100DA600E0936A02E0936B020895E0E0E0936C0240
:100DB600E0936D020895E0E0E0936E02E0936F0227
:100DC6000895E0E0E0937002E09371020895E0E098
:100DD600E0937202E09373020895E0E0E0937402F8
:100DE600E09375020895E0E0E0937602E0937702DF
:100DF6000895AA24BB24CC24DD24E0E0E09360021D
:100E0600E0936102E0936202E0936302E09364027E
:100E1600E0936502E0936602E0936702E09368025E
:100E2600E0936902BCCF0E9483070E949007089551
:100E3600E0E0EA93A0E00C94AB050E94EA05A8EE78
:100E4600B3E00E9471070C94BC05EA93A0E00C94F1
:100E5600AB05E3B3E7700E2F07300895E02FF0E0FF
:100E6600E630A0E0FA0708952A93AD85BE85EF85A2
:100E7600F88909950895E889F9893497E88BF98BFB
:100E86000895AD85BE85EF85F88909950895A889E9
:100E9600B98914960E948807EE83FF83AE81BF81CD
:100EA6000895A889B98914960E948807EA87FB875E
:100EB6000895DE011C960E947B070E94880708950C
:100EC6000E949F05A3E0B0E00C947107A0E30E9486
:100ED6008B0588EC90E00197F1F70895109639F0AC
:100EE60080ED97E00197F1F7A8951197C9F7089556
:100EF6000024AF0DB01D0895F195E195F0400895D9
:100F06006F2F660F660B762F0895ED91FC91119762
:100F160008950590F491E02D08957A936A93FA93D3
:100F2600EA9308955A934A933A932A931A930A9303
:100F360008955D814C813B812A811981088108953C
:00000001FF
